:020000040800F2
:10800000605E0120558200085D8200085F820008E2
:108010006182000863820008658200080000000099
:108020000000000000000000000000009D8100082A
:108030006982000800000000F181000841A40008E6
:108040006F8200086F8200086F82000895A1000807
:108050006F8200086F8200086F8200086F8200083C
:108060006F8200086F8200086F8200086F8200082C
:108070006F8200086F8200086F8200086F8200081C
:108080006F8200086F8200086F8200086F8200080C
:10809000399100086F8200086F8200086F82000823
:1080A0006F8200086F8200086F8200086F820008EC
:1080B0006F820008DDA400086F8200086F8200084C
:1080C0006F8200086F8200086F8200086F820008CC
:1080D0006F82000851A600088DA6000895A600082A
:1080E0006F8200086D9D00086F8200086F82000893
:1080F0006F8200086F8200086F8200086F8200089C
:108100006F82000851A300086F8200086F82000888
:1081100011A6000849A600086F8200086F820008B7
:108120006F8200086F8200086F8200086F8200086B
:108130006F8200086F8200086F8200086F8200085B
:108140006F8200086F8200086F8200086F8200084B
:108150006F8200086F8200086F820008CDA60008B9
:108160006F8200086F8200086F8200086F8200082B
:108170006F8200086F8200086F8200086F8200081B
:108180006F8200086F820008DFF80CD000F0AEFDAF
:108190000048004709910008605E01202A4B1968D9
:1081A0000868B0E8F04F80F30988BFF36F8F4FF095
:1081B000000080F311887047000000000648006846
:1081C000006880F3088862B661B6BFF34F8FBFF3D3
:1081D0006F8F00DF00BF00BF08ED00E0DFF80C008C
:1081E000016841F470010160704700BF88ED00E054
:1081F000EFF30980BFF36F8F134B1A681EF0100F57
:1082000008BF20ED108A20E9F04F106008B44FF04D
:10821000100080F31188BFF34F8FBFF36F8F08F00A
:10822000A9FE4FF0000080F3118808BC19680868A7
:10823000B0E8F04F1EF0100F08BFB0EC108A80F3CA
:108240000988BFF36F8F7047DC000020EFF30580D3
:10825000704700000648804706480047FEE7FEE7F3
:10826000FEE7FEE7FEE7FEE7FEE7FEE7FEE7FEE7E6
:1082700075A400088981000838B5D0E90221491E9B
:1082800001EB410102EBC1014268C1EB011102EBBC
:1082900081010268C1EB011102EB8102D0E90431D6
:1082A00001EB410103EB81013023A1F5527191FBF8
:1082B000F3F4174D6C4302EBC41291FBF3F403FB90
:1082C000141100921A2902DB124B1A4400920C225C
:1082D00091FBF2F3104C6343009C04EBC313009337
:1082E00091FBF2F302FB13110C4A08E0491E40F225
:1082F000A324535C6343009C04EBC3130093002945
:10830000F4DC0146684600F0BBFB009838BD000075
:108310003F0C0F008051010067C203006821010873
:1083200040EA01039B0703D009E008C9121F08C0F7
:10833000042AFAD203E011F8013B00F8013B521E77
:10834000F9D27047D2B201E000F8012B491EFBD2EE
:1083500070470022F6E710B513460A460446194650
:10836000FFF7F0FF204610BD30B505462A460B4604
:1083700012F8010B13F8014B08B1A042F8D01CB160
:10838000002802D06D1CF1E7284630BD421C10F8D1
:10839000011B0029FBD1801A704700000FB400B503
:1083A0008DB010A909900B9000914FF0FF300A900A
:1083B00000200C9005480690054807906A4609A8D9
:1083C0000F9900F0B7FB0DB05DF814FB518B00085E
:1083D0006F8B00082DE9FF5F1D464FF0FF3BD5E98D
:1083E000014691465F464FF00008A9697F1C01983D
:1083F0008847296A824688470028F6D1BAF1FF3FAC
:108400000CD024F4C064002E19DD600614D5BAF136
:108410002B0F09D0BAF12D0F0ED103E0584604B04E
:10842000BDE8F09F44F48064A9697F1C01988847E7
:10843000761E8246002E02DDBAF1300F03D0B9F16C
:10844000000F26D032E0A969761E44F400747F1C28
:10845000019888478246002E05DDBAF1780F06D0D4
:10846000BAF1580F03D0B9F1000F10D01EE0B9F1E6
:10847000000F02D0B9F1100F18D1A969761E24F4AB
:1084800000747F1C019888478246102002E0082073
:1084900000E00A20814609E008FB0908A969761E68
:1084A00044F400747F1C019888478246002E05DD45
:1084B0004946504600F02AFB0028EDDAE9690198A8
:1084C0008847A00502D46FF00100A8E7E00725D196
:1084D000600613D5600502D5C8F1000000E04046F3
:1084E00029680A1D2A600968220501D5087015E06F
:1084F000220701D5088011E008600FE02868011DFF
:1085000029600068210502D580F8008006E0210777
:1085100002D5A0F8008001E0C0F8008038467EE770
:108520002DE9FF5FD2E901A74FF000089169994654
:108530001446DDF838B0464601988847054659EAA2
:108540000B0005D009E0A169761C01988847054613
:10855000216A284688470028F5D1681C03D05FEAC5
:10856000CA7005D015E04FF0FF3004B0BDE8F09FB1
:108570002068011D2160D0F800800AE05FEACA701F
:1085800001D108F8015BA169761C7F1E019888471C
:108590000546002F1ADD681C18D0B9F1000F0DD068
:1085A000E81705EBD060421120F01F0059F82210A7
:1085B0002A1A012090400142E0D107E0BBF1000FF0
:1085C000DCD1216A284688470028D7D0E169019884
:1085D0008847BBF1000F07D1002E05DD5FEACA70A6
:1085E00002D1002188F80010A068B84203DDBBF179
:1085F000000F03D017B16FF00100B6E73046B4E7C3
:108600002DE9FE4F804681EA0300C00F0C46009022
:1086100021F0004123F00045B8EB0200A94105D24A
:108620004046214690461C460B46024623F0004039
:10863000104347D0270DC7F30A00C3F30A51029035
:10864000401A019040286BDAC3F3130040F4801BFA
:108650000098924620B10023D2EB030A63EB0B0B88
:1086600001985946C0F14002504600F0D2F9064642
:108670000D4650465946019A00F0EAF910EB080001
:108680006141002487EA115284EAE7731A4340D01B
:10869000009A62B3019A012A4FEA075215DC001BC7
:1086A00061EB02014FF0004202EA0752CDE90042BD
:1086B000001C41F5801132462B4600F078FA03B0D9
:1086C000BDE8F08F40462146F9E7001B61EB02014F
:1086D000001C41F5801300185B412018A2F500171B
:1086E00047EB030140EAD570B6196D4111E06D0802
:1086F0004FEA360645EAC0754FEA0752001B61EBA8
:108700000201001C41F5801149084FEA30000019B0
:10871000514132462B4603B0BDE8F04F00F038BA65
:108720000098012240000023D0EB020263EBE073CB
:10873000009821464FEAE074B8EB000061EB0401B9
:10874000E9E783F000435BE781F0004158E72DE95A
:10875000FE4F81EA030404F0004421F0004100943C
:108760004FF0000B23F0004350EA01045ED052EAC0
:1087700003045BD0C3F30A54C1F30A552C44A4F29A
:10878000F3340194A0FB0254C1F3130141F48011AE
:10879000C3F3130343F4801301FB024400FB034EB5
:1087A000840A970A44EA815447EA8357A4FB07687E
:1087B00002958D0A05FB07854FEA932C04FB0C54A8
:1087C0002705029D4FEA065847EA1637B5EB08051C
:1087D0006EEB070C870E920E47EA811742EA83126E
:1087E000A7FB0201B6EB0B0164EB00042B0D43EA7F
:1087F0000C335E1844EB1C50DA465146E7FB02018D
:10880000C5F313044FEA0B3343EA14534FEA04321F
:10881000019C43EA0603A4F10C040294009CCDE9F8
:1088200000B400F0C4F903B0BDE8F08F00200146A9
:10883000F9E72DE9F04D81EA030404F0004B21F043
:10884000004514464FF0000A23F0004150EA0502AB
:1088500020D054EA01021DD0C5F30A570246C5F3E1
:108860001303C1F31300C1F30A5640F4801543F417
:108870008013A7EB0608101BD64608F2FD3873EBF1
:10888000050002D308F1010801E092185B41B8F13C
:10889000000F03DA00200146BDE8F08D00204FF400
:1088A0008011064684460EE0171B73EB050705D3BF
:1088B000121B63EB050306434CEA010C49084FEA1F
:1088C000300092185B4150EA0107EDD152EA0300F3
:1088D00012D082EA040083EA0501084305D0101B88
:1088E000AB4106D20122002306E000224FF00043F4
:1088F00002E06FF0010253101AEB06004CEB085136
:1089000010EB0A0041EB0B01BDE8F04D00F040B95F
:108910000EB5C10F80EAE0700844CA07002140F29A
:1089200033438DE80E000A460B4600F040F903B0D1
:1089300000BD0EB540F2334102910021CDE9001196
:108940000A460B4600F033F903B000BDC1F30A52EA
:1089500010B5C1F3130140F2FF3341F480119A4284
:1089600001DA002010BD40F233439A42A2F23342B2
:1089700003DC524200F05CF810BD904010BD0000D6
:1089800030B5041E71F1000404DB4FF00044404296
:1089900064EB0101141E73F1000405DB1C464FF06B
:1089A0000043524263EB0403994208BF904230BD3A
:1089B0002DE9F05F0546002092469B468846064614
:1089C000814640241BE0284641464746224600F0A7
:1089D0002FF853465A46C01A914110D311461846F3
:1089E000224600F016F82D1A67EB01084F46224682
:1089F0000120002100F00DF817EB00094E41201E68
:108A0000A4F10104DFDC484631462A464346BDE86E
:108A1000F09F202A04DB203A00FA02F10020704780
:108A20009140C2F1200320FA03F3194390407047AC
:108A3000202A04DB203A21FA02F00021704721FAB3
:108A400002F3D040C2F1200291400843194670471A
:108A5000202A06DBCB17203A41FA02F043EAE07302
:108A600006E041FA02F3D040C2F1200291400843EF
:108A700019467047014900F003B80000305A012040
:108A800010B500683C22B0FBF2F302FB1303B0FB0D
:108A9000F2F00B60B0FBF2F302FB1303B0FBF2F059
:108AA00018224B60B0FBF2F302FB1303B0FBF2F0B1
:108AB000021D8B600723B2FBF3F403FB142280003A
:108AC00040F2B55300F66C308A61B0FBF3F2B0FBB4
:108AD000F3F403FB1400443280084A61C8613B2868
:108AE00002D3920700D0401C0022074C13460A61B3
:108AF000E25C824203D8801A5B1C0B61F8E7401CE1
:108B0000C860084610BD0000982201083A2800D22B
:108B1000303820F02002412A01D3A2F137008842E8
:108B200001D34FF0FF3070470268114413780160A1
:108B300018467047D160044951610449116200210F
:108B40001161114600F0EAB8298B0008118D000868
:108B5000426842B1016811F8013B23B1521EC0E9DD
:108B60000012184670470121C160881E7047426894
:108B70005AB1C368016843B983688B4205D0491E66
:108B8000521CC0E90012002070474FF0FF307047C0
:108B900010B5141E73F1000408DA401C41F1000105
:108BA00092185B411A4301D120F0010010BD2DE95C
:108BB000F04D92469B4611B1B1FA81F202E0B0FA53
:108BC00080F220329046FFF724FF04460F4640EA29
:108BD0000A0041EA0B0153465A46084313D0114696
:108BE00053EA010019D0C8F140025046FFF720FFB8
:108BF00005460E46504659464246FFF70AFF0843CF
:108C000005D0012004E020463946BDE8F08D002063
:108C1000054346EAE0762C4337430A986305E40AA5
:108C2000A0EB08000022FD0A44EA47540A3002D5AE
:108C300000200146E9E7010510196941DDE9084511
:108C400000196941BDE8F04DA2E72DE9F04D002380
:108C50001A461B1A8A4103DB00200146BDE8F08D4D
:108C6000C1F30A52C1F3130141F480154FF0000B18
:108C7000D10702D100186D41521E0027044640F270
:108C8000FF11384601EB620A3E468046024600204C
:108C90004FF48011FFF7CCFEC2197141BB1846EBAF
:108CA0000100B4EB030C75EB000C04D3E41A65EB84
:108CB000000517460E46241908F101006D41804653
:108CC0003428E3DDF91946EB0600091BA84103D25D
:108CD0004FF0FF32134601E0002213461BEB070062
:108CE00046EB0A51BDE8F04DFFF752BF064C074D69
:108CF00006E0E06840F0010394E80700984710346C
:108D0000AC42F6D3FFF744FAE42201080423010839
:108D1000C0B24FF4F05100F0B7B900002DE9F34FA5
:108D20008BB04FF0000801F10C000C464FF0010B26
:108D300046460DF1080A01906269012101989047A9
:108D4000051E2DD0252D2CD0216A8847C0B162691F
:108D5000012101989047216A88470028F7D1411ED8
:108D600062690198904700E0761CA1690B988847DA
:108D7000216A88470028F7D1E1690B988847DBE72B
:108D8000A1690B9888470746A84201D1761CD3E712
:108D9000E1690B9888477F1C02D1B8F1000F6FD0B2
:108DA00046E1002762693D463946019890472A28E6
:108DB00004D162690121019890470125DFF884926E
:108DC0006269012101989047A0F130010A290AD275
:108DD0004F45E5DC07EB870100EB4107303FDFD46F
:108DE00045F01005ECE7E90601D46FF000476C2868
:108DF0000AD04C2814D0682815D06A280DD07428C1
:108E00001CD07A281AD01DE0626901210198904790
:108E10006C2802D045F0040514E045F002050DE091
:108E200045F020050AE06269012101989047682811
:108E300002D045F0080505E045F4006562690121AE
:108E400001989047C4E9015765283DD019DC58289E
:108E50007AD00CDC452837D004DC252826D04128E0
:108E600031D131E046282FD047282CD12CE05B2887
:108E700077D0612828D063287CD0642823D15AE099
:108E8000D0E06F2848D008DC66281DD067281BD0AA
:108E9000692821D06E2816D127E0702845D0732884
:108EA00068D0752847D078280DD14DE0A1690B987E
:108EB0008847054625283FF469AFE1690B98884744
:108EC0006D1C3FF46AAFB3E023466A466FF00100C1
:108ED0000B99AFF300809EE045F040006060A8076A
:108EE00023464FF0000236D43EE0E8077FF447AF58
:108EF0002068011D21600068290501D506701BE767
:108F0000290701D5068017E7A90703D5F117C0E99E
:108F1000006111E706600FE745F040006060A807B8
:108F200023464FF0080216D41EE040F60E0125EA53
:108F30000100606016E045F040006060A80723462D
:108F40004FF00A0207D40FE045F040006060A80728
:108F500008D5234610226FF001000B99AFF3008073
:108F600059E007E0234610226FF001000B99FFF74C
:108F700031FA50E04FF000094F464B46632802D0CB
:108F80005B2806D040E0E80601D40120A06001275C
:108F90003AE062690121019890475E2805D14FF0BF
:108FA00001096269494601989047216939B9002150
:108FB0000A46534643F82120491C0829FADBB0B37E
:108FC000216969B9C11700EBD16253110AEB830122
:108FD00022F01F02821A01200B68904003430B60AD
:108FE00062690121019890475D28E8D1B9F1000F2D
:108FF00009D00020514651F82020D24341F82020CA
:10900000401C0828F7DB02AB224600976FF00100F6
:109010000B99FFF785FA00280CDA401C08D1BBF148
:10902000000F05D04FF0FF300DB0BDE8F08FFFE727
:109030004046F9E7E90701D108F1010806444FF07D
:10904000000B79E6CCCCCC0C70B5C1F30A5201F020
:1090500000450024C1F3130140F2FF3341F48011B5
:109060009A4201DA002070BD40F233439A42A2F2E4
:10907000334203DC5242FFF7DBFC00E090402C431C
:10908000F1D0404270BD00007F2801D9002208E0E5
:10909000064A02EB5002C007127800D1120902F012
:1090A0000F0201209040084070470000A4220108F0
:1090B00070B58C1810F8015B15F0070301D110F89A
:1090C000013B2A1106D110F8012B03E010F8016BC7
:1090D00001F8016B5B1EF9D12B0705D40023521E4A
:1090E0000DD401F8013BFAE710F8013BCB1A921CB2
:1090F00003E013F8015B01F8015B521EF9D5A142B0
:10910000D8D3002070BD00001CB506F081F8002007
:109110001E2103464FF40072CDE9001003A105485B
:1091200008F09AFD07F0D4FE00201CBD6D61696E49
:1091300000000000D5DD000810B586B0142101A89C
:10914000FFF707F900BF1021EFF3118081F31188B9
:10915000BFF34F8FBFF36F8F00BF044601AA0021FA
:10916000054800F03EF901A807F04AFF204680F3C9
:10917000118800BF06B010BD0064004010B5044661
:109180000B48844209D10121480600F069FC002106
:109190004FF0007000F064FC08E00121880600F048
:1091A0005FFC00214FF0806000F05AFC10BD000011
:1091B0000064004010B50021837A012202FA03F115
:1091C0003D4A126842F001023B4B1A603A4A1C3297
:1091D00012688A43384B1C331A60027BCAB9364A7C
:1091E0000C3212688A43344B0C331A604288C388AD
:1091F00042EA0343304A4032847A42F834300288EB
:10920000838842EA03432C4A4032847A02EBC40248
:109210005360027B012A19D1274A0C3212680A4393
:10922000254B0C331A604288038842EA0343224AE2
:109230004032847A42F83430C288838842EA034359
:109240001D4A4032847A02EBC4025360C27A3AB9B2
:10925000194A121D12688A43174B1B1D1A6006E03B
:10926000154A121D12680A43134B1B1D1A6002890E
:1092700032B9114A143212688A430F4B14331A6000
:109280000289012A06D10C4A143212680A430A4B99
:1092900014331A60427B012A06D1074A1C32126835
:1092A0000A43054B1C331A60034A126822F001027C
:1092B000014B1A6010BD0000006600401AB14369FE
:1092C0000B43436102E043698B434361704730B510
:1092D000024600200023146824F00204146014687D
:1092E00044F00104146000E05B1C546804F00104C5
:1092F0001CB94FF6FF74A342F6D1546804F0010480
:109300000CB900206CE08C79012C04D1146844F075
:109310008004146003E0146824F080041460CC79A5
:10932000012C04D1146844F04004146003E0146874
:1093300024F0400414600C7A012C04D1146844F029
:109340002004146003E0146824F0200414604C7AB4
:10935000012C04D1146844F01004146003E0146874
:1093600024F0100414608C7A012C04D1146844F0A9
:109370000804146003E0146824F008041460CC7A34
:10938000012C04D1146844F00404146003E0146850
:1093900024F0040414608C78A407CD7844EA0564B2
:1093A0000D7944EA05444D7944EA05540D886D1E53
:1093B0002C43D461146824F001041460002300E0FD
:1093C0005B1C546804F001041CB14FF6FF74A34207
:1093D000F6D1546804F001040CB1002000E0012033
:1093E00030BD10B500F5D87303EB01131B6803F013
:1093F00004031372137A53B900F5D87303EB011306
:109400001B6840F2FF7404EA5353136009E000F54F
:10941000D87303EB01131B686FF0604404EAD303B5
:10942000536000F5D87303EB01131B6803F00203CC
:10943000537200F5D87303EB01135B6803F00F035D
:10944000937200F5D87303EB01135B681B0AD374A6
:1094500000F5D87303EB01139B68D37200F5D87342
:1094600003EB01139B681C0A147300F5D87303EB1C
:1094700001139B681C0C547300F5D87303EB0113A4
:109480009B681B0E937300F5D87303EB0113DB6825
:10949000D37300F5D87303EB0113DB681C0A147453
:1094A00000F5D87303EB0113DB681C0C547400F552
:1094B000D87303EB0113DB681B0E937421B9C368E7
:1094C00043F02003C36003E0036943F0200303611A
:1094D00010BD10B502460020936803F08063B3F11D
:1094E000806F00D110E0936803F00063B3F1006F68
:1094F00001D1012008E0936803F08053B3F1805F4D
:1095000001D1022000E00420042874D002F5C073C9
:1095100003EB00131B6803F0010402F5C07303EBB7
:1095200000131C600B7A7BB94B7A0C8843EA4453D6
:1095300002F5C07404EB00142468234302F5C074E0
:1095400004EB0014236010E00B7A4C6843EAC40378
:109550004C7A234302F5C07404EB001424682343BF
:1095600002F5C07404EB001423608B7A03F00F0340
:109570008B7202F5C07303EB00135B6823F00F04DA
:1095800002F5C07303EB00135C6002F5C07303EBDC
:1095900000135B688C7A234302F5C07404EB00145B
:1095A00063608B7B1C064B7B44EA03440B7B44EAE1
:1095B0000323CC7A234302F5C07404EB0014A360A8
:1095C0008B7C1C064B7C44EA03440B7C44EA03235B
:1095D000CC7B234302F5C07404EB0014E36002F576
:1095E000C07303EB00131B6843F0010402F5C07362
:1095F00003EB00131C6010BD10B52DED080B2DED15
:10960000108B92B0B0EE418AF0EE618AB0EE429AD1
:10961000F0EE629AB0EE43AAF0EE63AA9DED220B43
:1096200000F072FEB0EE40CAF0EE60CAB0EE490A39
:10963000F0EE690A00F068FEB0EE40DAF0EE60DAB3
:1096400053EC1D2B51EC1C0BFFF77BF8CDE91001FF
:10965000B0EE4A0AF0EE6A0A00F056FEB0EE40EABA
:10966000F0EE60EAB0EE480AF0EE680A00F04CFE58
:10967000B0EE40FAF0EE60FA53EC1E2B51EC1F0BEB
:10968000FFF75FF8CDE90E019FED490B53EC102B6E
:109690009DED0E0B51EC100BFFF7CBF841EC1F0BBF
:1096A000B0EE4F0AF0EE6F0A01F066F9B0EE40EA54
:1096B000F0EE60EA00F0A2F98DED020BB0EE4D0A7B
:1096C000F0EE6D0A01F0F4F8B0EE40EAF0EE60EA78
:1096D000B0EE4C0AF0EE6C0A01F0EAF8B0EE40FA97
:1096E000F0EE60FA53EC1E2B51EC1F0BFFF72FF836
:1096F000CDE900019DED020B53EC102B9DED000B0D
:1097000051EC100BFFF723F89FED290B53EC102BB6
:10971000CDE906019DED100B51EC100BFFF789F818
:1097200041EC1F0BB0EE4F0AF0EE6F0A01F024F986
:10973000B0EE40EAF0EE60EA00F060F98DED040B67
:109740009DED060B53EC102B9DED040B51EC100B13
:10975000FEF756FFCDE908019DED080B01F070F909
:109760008DED0A0B9DED0A0B01F006F98DED0C0B4A
:109770009FED0F0B53EC102B9DED0C0B51EC100BD0
:10978000FEF7E5FF41EC1B0B9FED0B0B53EC102B91
:1097900051EC1B0BFEF7DBFF41EC1B0BB0EE4B0A51
:1097A000F0EE6B0A12B0BDEC108B08B010BD0000DB
:1097B00000000000000000408D976E1223EAB840C0
:1097C0000149086070470000143C01400021234912
:1097D0008279002A3AD00A46126803689A430B46F7
:1097E0001A600A1D126803689A430B1D1A600279F9
:1097F00011440A6803681A430A60184A083212685A
:1098000003689A43154B08331A601A1D12680368DF
:109810009A43124B0C331A604279102A0ED11A1F48
:10982000126803681A430D4B08331A601A1D126838
:1098300003681A43094B0C331A600DE0074942795B
:1098400011440A6803681A430A6005E0027911446A
:109850000A6803689A430A6070470000003C0140B0
:10986000F0B50A4600210023002400BF3DE0012599
:1098700005FA01F3156805EA03049C4234D1056832
:109880004F000326BE40B543056015794E00B54034
:109890000668354305601579012D02D01579022D32
:1098A00016D185684F000326BE40B54385605579C3
:1098B0004E00B540866835438560456801268E4078
:1098C000B5434560456896798E40B6B235434560EC
:1098D000C5684F000326BE40B543C560D5794E002C
:1098E000B540C6683543C560491C1029BFD3F0BDDB
:1098F000F0B5002300244D07ED0E02FA05F3CE105B
:1099000000F1200555F826504E07F70E0F26BE40F1
:10991000B543CF1000F1200646F82750CE1000F1D5
:10992000200555F8265045EA0304CE1000F1200525
:1099300045F82640F0BD4183704701837047000021
:109940004AF6AA2001490860704700000030004034
:1099500070B5002100230F22C4781CB3174C246873
:1099600004F4E064C4F5E064C4F30721C1F1040425
:10997000E3B20A4144789C40E1B284781440214328
:109980000C07210E0E4C05786155047804F01F0574
:109990000124AC4005786D11AD0005F1E025C5F856
:1099A000004109E0047804F01F050124AC40054D96
:1099B0000678761145F8264070BD00000CED00E0F9
:1099C00000E400E080E100E002490143024A116046
:1099D000704700000000FA050CED00E0024A0A4062
:1099E0000243024B1A60704780FFFF1F08ED00E042
:1099F000014908627047000000000E4210B52DEDCD
:109A0000028BB0EE408AF0EE608A53EC182B51ECDA
:109A1000180BFEF79CFE41EC100BBDEC028B10BD49
:109A200029B1064A12680243044B1A6004E0034A53
:109A300012688243014B1A607047000030380240C0
:109A400029B1064A12680243044B1A6004E0034A33
:109A500012688243014B1A60704700004038024090
:109A600029B1064A12680243044B1A6004E0034A13
:109A700012688243014B1A60704700002038024090
:109A800029B1064A12680243044B1A6004E0034AF3
:109A900012688243014B1A6070470000443802404C
:109AA0000E48006840F001000C49086000200B4996
:109AB00008310860094800680949084007490860FA
:109AC0000848091D0860081F006820F48020091F4D
:109AD0000860002001490C310860704700380240DE
:109AE000FFFFF6FE10300024F0B500210022002414
:109AF000022500260223324F3F6807F00C0121B1F6
:109B0000042905D0082937D105E02E4F076036E03B
:109B10002D4F076033E02A4F3F1F3F68C7F3805641
:109B2000274F3F1F3F6807F03F036EB1264FB7FB3B
:109B3000F3F7DFF88CC0ACF1040CDCF800C0CCF318
:109B4000881C07FB0CF40CE01E4FB7FBF3F7DFF8A3
:109B500070C0ACF1040CDCF800C0CCF3881C07FB2F
:109B60000CF4174F3F1F3F68C7F301477F1C7D0070
:109B7000B4FBF5F7076002E0124F076000BF00BFBB
:109B80000F4F3F6807F0F0010909104F7A5C076832
:109B9000D74047600A4F3F6807F4E051890A0B4FEE
:109BA0007A5C4768D7408760054F3F6807F460419B
:109BB000490B064F7A5C4768D740C760F0BD00008C
:109BC000083802400024F40000127A002C01002022
:109BD00010B501460022002300204A11012A02D1BB
:109BE0000A4C236808E0022A03D1084C7034236829
:109BF00002E0064C7434236801F01F0201249440F3
:109C00001C400CB1012000E0002010BD00380240D3
:109C10000248006800F00C0070470000083802405D
:109C200001460020034A106820F0F000084310604D
:109C300070470000083802400021024A11701146A6
:109C400008707047023802400021094A11701170F3
:109C5000012802D0042808D103E00121044A117030
:109C600004E00521024A117000E000BF00BF704708
:109C70007038024001460020034A106820F4E0508A
:109C80000843106070470000083802400146002079
:109C9000034A106820F4604040EAC1001060704739
:109CA000083802400149086670470000000047423A
:109CB00070B5049C41EA82150126C6EB530645EABD
:109CC0000645054345EA0465014E356070BD000058
:109CD0000438024001490860704700003C0E4742CA
:109CE000002100F44072B2F5407F08D1094A1168A2
:109CF00021F4F811084A02401143064A1160054A4E
:109D000068321268C0F30B031A43024B68331A60BF
:109D10007047000008380240FFFCFF0F014600209A
:109D2000034A106820F003000843106070470000E9
:109D30000838024038B5002000900024002500BFFC
:109D40003120FFF745FF05460098401C0090009821
:109D5000B0F5A06F01D0002DF2D03120FFF738FF11
:109D600008B1012400E00024204638BD10B50348A6
:109D7000006810B101480068804710BD98000020BD
:109D8000014600BF080900EB8000420001F00F000F
:109D90001044C0B270470146002204E0501CC2B219
:109DA000A1F10A00C1B20A29F8DA100741EA1060ED
:109DB0007047000081B241F08001044A126802F04D
:109DC000800262EA0101014A116070470C280040DC
:109DD000002101098AB242F08002044B1B6803F0A3
:109DE000800363EA0202014B1A6070470C280040AE
:109DF00008B50022009200200021104A126802F0EB
:109E00004002CAB9421E0D4B1A6000BF0B4A1268CD
:109E100002F04001009A521C0092009AB2F5803F75
:109E200001D00029F2D0054A126802F040020AB1BE
:109E3000012002E0002000E0012008BD0C280040C5
:109E40000348006820F08000014908607047000066
:109E50000C28004070B506460C4600250E480068E8
:109E60000E4900EA0105280CE070C5F3042060707B
:109E700005F03F00A070C5F3423020705EB9E07875
:109E8000FFF77EFFE0706078FFF77AFF6070A078E0
:109E9000FFF776FFA07070BD042800403FFFFF0071
:109EA00010B5014600200022064B1B6843F677746C
:109EB00003EA040202EA01030BB1012000E00020E2
:109EC00010BD00000C28004070B506460C46002569
:109ED0000F4800680F4900EA0105C5F305402070EE
:109EE000C5F30620607005F07F00A07005F48000C7
:109EF000000CE0705EB92078FFF742FF20706078B8
:109F0000FFF73EFF6070A078FFF73AFFA07070BDCA
:109F1000002800407F7F7F00CA22174B1A6053221F
:109F20001A6091B1144A1C3A126820F004031A43D3
:109F3000114B1C3B1A60104A1C32126800F00403DB
:109F40001A430D4B1C331A6011E00B4A1C3A12687D
:109F500020F004039A43084B1C3B1A60064A1C324B
:109F6000126800F004039A43034B1C331A60FF226B
:109F7000014B1A60704700002428004030B50446A9
:109F80000025CA201549086053200860FFF730FFFC
:109F900000B91DE011481C38006820F040000F494E
:109FA0001C39086008460068216808430B491C39C1
:109FB00008600A491439A068086008460068A1884A
:109FC00040EA0140054914390860FFF739FF0125CF
:109FD000FF2002490860284630BD000024280040C8
:109FE00008B501460020009004480090009800EB5E
:109FF000810000900098006808BD000050280040D3
:10A000002DE9F04105460C46002600274DB9607841
:10A0100000F01000102804D1607820F010000A3001
:10A02000607005B908E06078FFF7AAFE0646A078E0
:10A03000FFF7A6FE064600BF55B1E0780004617840
:10A0400040EA0120A1780843217840EA413611E036
:10A05000E078FFF7A0FE4FEA00486078FFF79BFE2C
:10A0600048EA0028A078FFF796FE48EA0008207822
:10A0700048EA4036CA200E49086053200860FFF7BE
:10A08000B7FE08B900270CE00A48304008492039DB
:10A090000860FFF7D5FE00F0A5F808B9002700E03A
:10A0A0000127FF20024908603846BDE8F081000022
:10A0B000242800403FFFFF002DE9F04105460C46F3
:10A0C000002600274DB92A48006800F0400000B182
:10A0D00002E00020E07000BF0DE02548006800F0BD
:10A0E000400020B12078FFF74BFE064602E000203A
:10A0F000E07000BF00BF55B120780004617840EAED
:10A100000120A1780843E17840EA014611E0207877
:10A11000FFF741FE4FEA00486078FFF73CFE48EA4F
:10A120000028A078FFF737FE48EA0008E07848EA00
:10A130000046CA200E491C31086053200860FFF712
:10A1400057FE08B900270CE00A4830400849083992
:10A150000860FFF775FE00F045F808B9002700E039
:10A160000127FF2002491C3108603846BDE8F08114
:10A17000082800407F7F7F00CA21054A11605321D3
:10A180001160034910390860FF2111607047000019
:10A190002428004010B5002400BF1021EFF31180E7
:10A1A00081F31188BFF34F8FBFF36F8F00BF044659
:10A1B0004FF48060FFF774FE012808D18002FFF79A
:10A1C000F9FD0748006810B10548006880474FF462
:10A1D0008000FFF7F5FA00BF84F3118800BF10BDBF
:10A1E0009400002008B50022009200200021CA221D
:10A1F000134B1A6053221A60114A183A126822F05F
:10A20000A0020F4B183B1A6000BF0D4A183A1268A3
:10A2100002F02001009A521C0092009AB2F5003F11
:10A2200001D00029F1D0064A183A126802F0200243
:10A230000AB1012000E00020FF22014B1A6008BD96
:10A2400024280040CA210A4A11605321116008499C
:10A250001C39096821F00701054A1C3A11601146B2
:10A26000096801431160FF21014A11607047000035
:10A270002428004018B50146002300930022002046
:10A28000CA23194C23605323236049B1164B1C3B4E
:10A290001B6843F48063144C1C3C236001201FE0C6
:10A2A000114B1C3B1B6823F480630F4C1C3C236048
:10A2B00000BF0D4B183B1B6803F00402009B5B1CA6
:10A2C0000093009BB3F5803F01D0002AF1D0064BEC
:10A2D000183B1B6803F004030BB9002000E00120C9
:10A2E000FF23014C236018BD2428004008B500223C
:10A2F0000092044A0092009A02EB80020092009AB7
:10A30000116008BD5028004010B52DED048BB0EE53
:10A31000408AF0EE608A9FED0A0B53EC102B51EC53
:10A32000180BFEF714FA41EC190B9FED070B53ECD9
:10A33000102BFEF77EFA41EC100BBDEC048B10BD28
:10A340004AD8124DFB210940000000000080664001
:10A35000704700000CB50020019000903448006860
:10A3600040F480303249086000BF3148006800F492
:10A37000003000900198401C0190009818B9019895
:10A38000B0F5A06FF1D12A48006800F4003010B198
:10A390000120009001E0002000900098012846D1A3
:10A3A00023484030006840F0805021494031086027
:10A3B0002048006840F480401E4908601C4808306E
:10A3C00000681B49083108600846006840F40040F6
:10A3D00008600846006840F4A05008601648091F4D
:10A3E0000860081F006840F08070091F086000BF07
:10A3F0000F48006800F000700028F9D040F20560B6
:10A400000E4908600A480830006820F00300084937
:10A41000083108600846006840F00200086000BF8C
:10A4200003480830006800F00C000828F8D10CBD83
:10A43000003802400070004019544007003C0240C0
:10A4400010B500BF102080F31188BFF34F8FBFF30A
:10A450006F8F00BF07F046FC18B14FF080500449E1
:10A46000086000BF002080F3118800BF10BD00000D
:10A4700004ED00E010B51548006840F47000134981
:10A4800008601348006840F001001149086000208E
:10A490000F49083108600E4800680E4908400C4911
:10A4A00008600D48091D0860081F006820F480201E
:10A4B000091F0860002006490C310860FFF74AFFB9
:10A4C0004FF0006001498039086010BD88ED00E060
:10A4D00000380240FFFFF6FE1030002410B50121C5
:10A4E000104800F038F8012817D10F48006810B163
:10A4F0000D48006880470D48006810B10B4800689F
:10A5000080470B48006810B1094800688047094837
:10A51000006810B10748006880470121014800F039
:10A520000BF810BD000400409C000020A00000209B
:10A53000A4000020A8000020CA430282704721B175
:10A54000028842F00102028004E002884FF6FE73A6
:10A550001A400280704730B50246002000230024D4
:10A56000158A05EA0103958905EA010413B10CB1C6
:10A57000012000E0002030BD1AB183890B438381A4
:10A5800002E083898B4383817047000000220288A8
:10A59000184B98420ED0184B98420BD0B0F1804F18
:10A5A00008D0164B984205D0154B984202D0154B57
:10A5B000984204D14FF68F731A404B881A43124BBE
:10A5C000984207D0114B984204D04FF6FF431A40EF
:10A5D0000B891A4302804B68C3620B880385054BC5
:10A5E000984202D0044B984201D18B7A0386012312
:10A5F00083827047000001400004014000040040D5
:10A6000000080040000C0040001000400014004012
:10A6100010B500BF1021EFF3118081F31188BFF353
:10A620004F8FBFF36F8F00BF04462021054800F015
:10A630005DF8012801D106F059FE00BF84F31188AE
:10A6400000BF10BD004C004010B506F04FFE10BD1D
:10A6500010B5002400BF1021EFF3118081F31188A1
:10A66000BFF34F8FBFF36F8F00BF04462021064812
:10A6700000F03CF8012801D106F020FD00BF84F372
:10A68000118800BF10BD00000010014010B506F099
:10A6900075FD10BD10B500BF1021EFF3118081F3DF
:10A6A0001188BFF34F8FBFF36F8F00BF0446202187
:10A6B000054800F01BF8012801D106F0B7FD00BFE6
:10A6C00084F3118800BF10BD0048004000B506F0BB
:10A6D0006DFE00BD21B1828942F40052828104E006
:10A6E00082894DF6FF731A4082817047024600202E
:10A6F000B1F5007F00D100BF13880B400BB10120E2
:10A7000000E000207047F0B5034600240026002535
:10A71000002040F66A17B94200D100BF1846C1F3C5
:10A72000421401F01F06012707FA06F5012C01D19A
:10A730000C3004E0022C01D1103000E014301AB1CA
:10A7400007682F43076002E00768AF430760F0BD6A
:10A750002DE9FF4705460E460024A14600BFA0464E
:10A76000B08900B100BF2C8A24F44054F08804431F
:10A770002C82AC8941F20C608443B0883189084353
:10A78000718908430443AC81AC8A24F44074B089D5
:10A790000443AC826846FFF7A7F92048854202D0FF
:10A7A0001F48854202D1DDF80C9001E0DDF80890E9
:10A7B000A88900F4004040B109EBC90000EB091082
:10A7C00031684900B0FBF1F707E009EBC90000EB85
:10A7D000091031688900B0FBF1F76420B7FBF0F095
:10A7E00004012009642101FB1078A88900F40040CD
:10A7F00040B1322000EBC800B0FBF1F000F00700E0
:10A80000044308E0322000EB08106421B0FBF1F0B3
:10A8100000F00F0004432C81BDE8FF8700100140C9
:10A820000014014001468888C0F308007047C1F356
:10A8300008028280704700000FB4054B10B503A9D1
:10A84000044A029800F066FD10BC5DF814FB00009D
:10A85000F1D40008500100200FB4084B10B504A932
:10A8600002AA039800F056FD044602A9002000F059
:10A8700082FF204610BC5DF814FB000077B700088B
:10A8800003B401984100009850EAC12018BF042089
:10A890004A0D18BF40F0010040F2FF72B2EB515F69
:10A8A00008BF40F00200012808BF052002B0704731
:10A8B00010B52F499FED2C1B2DED020B84B0059890
:10A8C00020F000408842D8BF9DED040B2DDD2949C2
:10A8D000884209D1049840B94FF0010000F014FDFE
:10A8E00000F0E2FC06B010BD05DB9DED040B00F0AE
:10A8F000CFFC06B010BD68469DED040B00F0E0F8FB
:10A9000010F0030004BF9DED021B9DED000B0CD069
:10A9100001280ED09DED021B9DED000B022817D0E3
:10A92000012000F01DFC06B010BD00F0E5FA06B0F5
:10A9300010BD9DED021B9DED000B012000F010FCF1
:10A9400051EC100B81F0004106B041EC100B10BD32
:10A9500000F0D2FA51EC100B81F0004106B041EC4E
:10A96000100B10BD000000000000000000000000FF
:10A97000FB21E93F0000F07F10B52F499FED2C1B14
:10A980002DED020B84B0059820F000408842DCBF1A
:10A9900000209DED040B32DD2849884209D104983E
:10A9A00040B94FF0010000F0AFFC00F07DFC06B0B4
:10A9B00010BD05DB9DED040B00F06AFC06B010BD78
:10A9C00068469DED040B00F07BF810F0030011D0F9
:10A9D000012818D09DED021B9DED000B02281AD016
:10A9E00000F08AFA51EC100B81F0004106B041EC06
:10A9F000100B10BD9DED021B9DED000B012000F022
:10AA0000AFFB06B010BD9DED021B9DED000B00F0ED
:10AA100073FA06B010BD012000F0A2FB51EC100B40
:10AA200081F0004106B041EC100B10BD00000000A9
:10AA30000000000000000000FB21E93F0000F07F63
:10AA400000B52DED048BB0EE409AF0EE609A83B025
:10AA500051EC190BFEF7F9F841EC180B18EE100A3F
:10AA600018EE901A8DED008B002818BF01200843C6
:10AA700020F00040C0F17F6000F1E040C00F14D032
:10AA800019EE101A19EE900A8DED009B002918BFDF
:10AA90000121084320F00040C0F17F6000F1E04058
:10AAA000C00F04BF012000F02FFCB0EE480A03B035
:10AAB000F0EE680ABDEC048B00BD00000000000051
:10AAC0002DE9F14F04462DED020B2DED088B8AB0D8
:10AAD0009FEDE70B80ED020B139EE74826F0004543
:10AAE00085420ADC9DED120B002084ED000B0AB0BC
:10AAF000BDEC088B03B0BDE8F08FE0489FEDE0AB04
:10AB00009FEDE1BBA84247DDE14F9FEDE39B9FED49
:10AB1000E48B9DED120B53EC1A2B51EC100B002E15
:10AB20001CDDFDF70EFE41EC100BBD4208D053ECCE
:10AB30001B2B51EC100BFDF704FEC4E900010BE0E8
:10AB400053EC192B51EC100BFDF7FBFD53EC182BBC
:10AB5000FDF7F7FDC4E900010120C8E7FDF750FD4E
:10AB600041EC100BBD4208D053EC1B2B51EC100BE9
:10AB7000FDF746FDC4E900010BE053EC192B51EC45
:10AB8000100BFDF73DFD53EC182BFDF739FDC4E923
:10AB900000014FF0FF30AAE7C348A84279DB9DEDE2
:10ABA000120B51EC100B02F01BFC41EC180B9FED4B
:10ABB000C00B53EC102BFDF7CAFD9FEDBF1B53ECF0
:10ABC000112BFDF71DFDFEF73FFA0746FDF7A0FE2E
:10ABD00041EC190B53EC1A2BFDF7B9FD53EC182B74
:10ABE000FDF7B2FD41EC180B53EC1B2B51EC190B8C
:10ABF000FDF7ADFDDFF8C8A241EC100B4FEA155888
:10AC00000125FA4453EC102B51EC180BFDF799FD7C
:10AC1000032DC4E900013DD0C1F30A5005EB4511F5
:10AC2000A8EB00001139814234DA0AEB051BB0EEC3
:10AC300048AA9BED000BF0EE68AA53EC102B51ECE8
:10AC4000190BFDF784FD41EC1B0B51EC1A0B53EC77
:10AC50001B2BFDF776FD41EC180B51EC1A0B53EC56
:10AC6000182BFDF76EFD53EC1B2BFDF76AFD9BEDDA
:10AC7000020B41EC1A0B53EC102B51EC190BFDF7A6
:10AC800066FD53EC1A2BFDF75CFD41EC100B6D1CBF
:10AC9000B8E70EE0002EA8BF3846BFF628AF94ED07
:10ACA000000B51EC100B81F00041C4E90001784227
:10ACB0001DE7C6F3130040F4801EC6F30A50A0F24D
:10ACC000F530471100F01F05C5F12000DDF848B050
:10ACD00008900020069007900520EC467949002D49
:10ACE00007EB0002794408BF51F8221009D051F84F
:10ACF000223001EB8201AB404A68089922FA01F147
:10AD00001943A1FB0E26A1FB0B131A449A4234BF30
:10AD10000123002303EB06080CEB8003D3E901A613
:10AD20000E448E4234BF0121002192448A4411B165
:10AD3000924502D903E0924501D2012100E00021B1
:10AD4000C3E901A641444CF82010011EA0F1010006
:10AD5000C4DC029800F10050850F0298DDE903671A
:10AD60008000DDF81480FDF7D3FD41EC1A0B30466E
:10AD7000FDF7DFFD9FED541B53EC112BFDF7E7FCB6
:10AD800041EC1B0B3846FDF7D4FD9FED511B53ECF6
:10AD9000112BFDF7DCFC41EC180B4046FDF7C9FD1B
:10ADA0009FED4D1B53EC112BFDF7D1FC41EC190B22
:10ADB00051EC180B53EC192BFDF722FC53EC1B2B19
:10ADC000FDF71EFC53EC1A2BFDF71AFCCDE9080128
:10ADD000002008909DED080B53EC1A2B51EC100B42
:10ADE000FDF7AFFC53EC1B2BFDF7ABFC53EC182B22
:10ADF000FDF7A7FC53EC192BFDF7A6FC9FED381BC4
:10AE000053EC112BFDF7A3FC9FED370B41EC180B16
:10AE100053EC102B9DED080B51EC100BFDF797FC3C
:10AE200053EC182BFDF7ECFB9FED310B41EC180BAD
:10AE300053EC102B9DED080B51EC100BFDF787FC2C
:10AE400053EC182BFDF7DCFB41EC100B139810F0C2
:10AE5000004F06D06D4251EC100B81F0004141ECE7
:10AE6000100B284684ED000B41E6000000000000B6
:10AE70000000000000000000FB21E93F7CD90240F7
:10AE800000004054FB21F93F3163621A61B4D03DA8
:10AE9000FB21F93F000000000000601A61B4D03DC2
:10AEA0007370032E8A19A33BFB2139410000000077
:10AEB00083C8C96D305FE43F000000000000E03F40
:10AEC000A2750000F0740000000000000000103EB9
:10AED000000000000000103C000000000000103ADC
:10AEE000182D4454FB21F93D3326A611460B113C85
:10AEF00000000054FB21F93D10B52DED040B2DEDA4
:10AF0000088B82B0B0EE419AF0EE619A0B9820F077
:10AF100000449FED4BABB4F1795F11DA9DED0A0B64
:10AF200051EC100BFEF790F8002801BFB0EE4A0A72
:10AF3000F0EE6A0A02B0BDEC088B04BF04B010BD8D
:10AF40009DED0A0B53EC102B51EC100BFDF7FFFBA2
:10AF500041EC180B3C480621B0EE480AF0EE680AB6
:10AF6000784400F081F853EC182B51EC100BFDF7EE
:10AF7000EEFB9DED0A0B41EC1B0B53EC192B51EC36
:10AF8000100BFDF7E4FB41EC190B53EC1B2B51ECC0
:10AF9000180BFDF7DCFB53EC192BFDF7D2FB9FEDF3
:10AFA0002C0B41EC190B53EC102B51EC180BFDF74B
:10AFB000CEFB41EC100B2848844210DA53EC192BDD
:10AFC00051EC100BFDF7BDFB53EC1A2BFDF7BCFB4E
:10AFD00041EC100B02B0BDEC088B04B010BD1F4853
:10AFE000A042BCBF9FED1E1B8DED001B06DBA4F530
:10AFF00000100190002000909DED001B51EC100B03
:10B0000053EC112BFDF79DFB9DED000B41EC180B54
:10B0100053EC102B51EC1A0BFDF793FB41EC1A0B80
:10B0200053EC192B51EC180BFDF78BFB53EC1A2B3F
:10B03000FDF78AFB41EC100BCCE70000000000009C
:10B04000000000000000F03F14720000000000004B
:10B05000000000000000E03F3333D33F0000E93F31
:10B06000000000000000D23F70B504462DED028BB9
:10B070004D1E00EBC500B0EE408AF0EE608A90ED08
:10B08000000B35F0060017D053EC182B51EC100BC9
:10B09000FDF75DFB41EC100B6D1E04EBC50090ED60
:10B0A000001B51EC100B53EC112BFDF7A9FA41ECEE
:10B0B000100B35F00600E7D1022D36D0042D1CD040
:10B0C000062D1CBFBDEC028B70BD53EC182B51EC50
:10B0D000100BFDF73CFB94ED0A1B53EC112BFDF715
:10B0E0008FFA53EC182BFDF732FB94ED081B53EC51
:10B0F000112BFDF785FA41EC100B53EC182B51EC9A
:10B10000100BFDF724FB94ED061B53EC112BFDF700
:10B1100077FA53EC182BFDF71AFB94ED040B53EC64
:10B12000102BFDF76DFA41EC100B53EC182B51EC82
:10B13000100BFDF70CFB94ED021B53EC112BFDF7EC
:10B140005FFA53EC182BFDF702FB94ED001B53EC58
:10B15000112BFDF755FABDEC028B41EC100B70BDC5
:10B1600031B504462DED040B2DED0A8BB0EE41BA3E
:10B17000F0EE61BA0B989DED0A0B20F00040B0F1A3
:10B18000795F0DDA51EC100BFFF77AFB042808BF4A
:10B1900000F09AF89DED0A0BBDEC0A8B05B030BDAE
:10B1A00053EC102B51EC100BFDF7D1FA41EC180BBE
:10B1B0009DED0A0B53EC182B51EC100BFDF7C7FA61
:10B1C00041EC190B2C48B0EE480AF0EE680A052154
:10B1D0007844FFF749FF9FED2ACBB0EE40AAF0EE8E
:10B1E00060AA9CB353EC1C2B51EC190BFDF7AFFA82
:10B1F00041EC1C0B53EC1A2B51EC190BFDF7A7FA81
:10B200009FED210B41EC190B53EC102B51EC1B0B58
:10B21000FDF79DFA53EC192BFDF793FA53EC182B1D
:10B22000FDF795FA53EC1B2BFDF78BFA53EC1C2B17
:10B23000FDF787FA9DED0A1B53EC112BFDF784FAFD
:10B24000BDEC0A8B05B041EC100B30BDFFE753ECB1
:10B250001A2B51EC180BFDF77AFA53EC1C2BFDF767
:10B26000CFF953EC192BFDF772FA9DED0A1B53EC45
:10B27000112BFDF7C5F9E3E79C700000000000000A
:10B28000495555555555C5BF000000000000E03F29
:10B2900010B553EC102B51EC100BFDF7B1F941EC4C
:10B2A000100B10BD000000009FED050B10B553EC16
:10B2B000102B51EC100BFDF7BCFA41EC100B10BD3C
:10B2C00000000000000000009FED050B10B553ECDE
:10B2D000102B51EC100BFDF73AFA41EC100B10BD9E
:10B2E000000000000000001002E008C8121F08C1A2
:10B2F000002AFAD170477047002001E001C1121FF7
:10B30000002AFBD170470000014908607047000027
:10B31000540100202DE9FF4F8DB00F460546002651
:10B3200006E025280BD0DDE90F1290476D1C761C36
:10B3300028780028F5D111B03046BDE8F08F002400
:10B34000A246A1460122EC4900E0044315F8013F62
:10B35000203B02FA03F00842F7D128782A2810D0BF
:10B360006FF02F022878A0F13001092914D80AEBD8
:10B370008A0102EB410144F0020400EB010A6D1C5A
:10B38000F0E701CF5FEA000A03D544F40054CAF1A4
:10B39000000A44F002046D1C28782E2817D115F8F5
:10B3A000010F44F004042A280ED06FF02F022878F1
:10B3B000A0F1300109290AD809EB890102EB41010A
:10B3C00000EB01096D1CF2E757F8049B6D1C28780F
:10B3D0006C280FD006DC4C2817D068280DD06A28BE
:10B3E00014D104E0742810D07A280FD10DE044F471
:10B3F00000140AE044F4801401E044F44014697835
:10B40000814202D104F580146D1C6D1C2A786E2ACD
:10B410001FD00CDC632A31D004DC002A8BD0582AE0
:10B4200011D1A3E0642A68D0692A0CD165E0732A9F
:10B430002ED004DC6F2A73D0702A04D19BE0752AC9
:10B440006FD0782A6ED01046DDE90F129047761C37
:10B4500050E1C4F30250022806D0032809D0042882
:10B4600001CF09D0066045E101CFF117C0E90061C5
:10B4700040E101CF06803DE106703BE117F8040B87
:10B480008DF8000000208DF80100EB46012003E05C
:10B4900057F804BB4FF0FF3061074FF0000102D4B2
:10B4A0000DE008F10101884649450FDA8045F8DBD7
:10B4B0001BF808100029F4D108E008F101018846C2
:10B4C0008142FADB1BF808100029F6D1DDE90F23D1
:10B4D000AAEB08008146214600F036F9304400EB23
:10B4E000080604E0DDE90F121BF8010B9047B8F1E4
:10B4F0000108F7D221464846F7E00A21C4F3025377
:10B500004FF0000B0891022B04D001CFC117032B81
:10B5100009D00AE0FF1D27F00707F7E8020108E05D
:10B5200032E01FE020E000B2C117042B01D140B28D
:10B53000C117031E71F1000307DA4FF0000CD0EBC6
:10B540000C006CEB01012D2302E0230504D52B2315
:10B550008DF82430012303E0E30701D02023F7E72F
:10B56000984658E00A2110E010210EE010204FF01C
:10B57000000B08900CE010214FF0000B44F0040485
:10B580004FF00809089103E008214FF0000B0891E3
:10B59000C4F30253022B04D001CF0021032B06D0A9
:10B5A00006E0FF1D27F00707F7E8020103E080B27D
:10B5B000042B00D1C0B24FF0000823072BD5702A0E
:10B5C00007D0DDF820C08CF0100C5CEA0B0C05D025
:10B5D0000EE040238DF82430012308E050EA0103F7
:10B5E00006D030238DF824308DF82520022398468C
:10B5F000DDF820C08CF0080C5CEA0B0C0BD150EA93
:10B60000010301D1630706D530238DF824304FF0B4
:10B610000108A9F10109582A04D038A20B9208AAFE
:10B620000A920BE03AA2F9E75B46089AFDF7C0F9E7
:10B630000B9B9B5C0A9A521E0A92137050EA0102FD
:10B64000F2D10A98ADEB000000F1200B600702D5A3
:10B6500024F4803401E04FF00109D94502DDA9EB63
:10B660000B0000E0002000EB0B0141440890AAEB26
:10B67000010AE00306D4DDE90F232146504600F01D
:10B6800063F806444FF0000908E009A911F8090021
:10B69000DDE90F12904709F10109761CC145F4DB81
:10B6A000E0030CD5DDE90F232146504600F04CF8AD
:10B6B000064404E0DDE90F1230209047761C08991B
:10B6C000481E08900029F5DC08E00A980A990078DD
:10B6D000491C0A91DDE90F129047761CBBF100016D
:10B6E000ABF1010BF1DC21465046DDE90F2300F000
:10B6F00019F806446D1C1BE609280100303132336D
:10B70000343536373839616263646566000000009D
:10B710003031323334353637383941424344454687
:10B72000000000002DE9F041044600251E461746A2
:10B73000880404D405E039462020B0476D1C641EFF
:10B74000F9D52846BDE8F0812DE9F04104460025F1
:10B750001E469046C80301D5302700E02027880404
:10B7600004D505E041463846B0476D1C641EF9D546
:10B770002846BDE8F0810A68531C0B6010707047C2
:10B780002DE9F0412DED068B05460F460DB1642FD6
:10B7900003DDBDEC068BBDE8F08100262DE306EB52
:10B7A000460055F8208006EB460005EB8000041D9E
:10B7B000F849A8EB010088456FD05BDCF648A8EBA0
:10B7C000000180456AD02CDCF449A8EB01008845D3
:10B7D00079D016DCF249A8EB0100884574D007DC6B
:10B7E000F0484044002870D0B0F5807F6ED12CE145
:10B7F000ED49084400286AD0EC4908440028F5D1F6
:10B8000013E2EB490844002876D0EA4908440028AE
:10B8100073D0B0F5803F71D0E74908440028E5D1E6
:10B82000AEE1E64A881A914269D016DCE44AA1EBFF
:10B83000020091427AD007DCE2480844002876D022
:10B84000B0F5C06FD2D1D3E1B0F5C05F70D0A0F534
:10B85000C85003380028C9D1A6E2B0F5807F68D06F
:10B86000B0F50C5F73D0B0F5244F71D0B0F5374F01
:10B87000BCD178E1B0F5305F6BD029DCB0F5105F5A
:10B8800058D013DCB0F5D05F7ED008DCB0F5A85FEF
:10B890007BD0B0F5B05FA9D108E2A2E275E1B0F5C6
:10B8A000D85F73D0B0F5F85FA0D135E2B0F5145F82
:10B8B00075D0B0F51C5F6BD0B0F5205F69D0B0F5E6
:10B8C0002C5F93D134E194E154E1C6E090E295E13C
:10B8D000B0F5D64F73D01BDC43F21722A0EB020168
:10B8E00090426DD00CDCB0F5345F6AD0A0F53850D2
:10B8F0000338002893D11BE26FE274E272E288E120
:10B90000A1F2E92100297CD0B1F5106F87D102E2C4
:10B91000B0F5604F76D0B0F5953F74D0AA49084491
:10B92000002871D0B0F5803F8CD17CE1BAE07DE198
:10B9300065E120E12078FF2801D1282000E020786F
:10B94000A24988706078FF2804D1282003E05BE1D9
:10B9500064E1E5E060789D4908726088FCF7E9FFE2
:10B9600041EC190B9FED9A0B53EC102BFCF7EFFEFB
:10B9700041EC180BFCF7EAFF9449A1F80900207884
:10B98000FF2807D1282006E08BE0ABE04FE106E07E
:10B9900060E188E020788D4981F8710029E2E07843
:10B9A000FF2801D1002000E0E0788006000E8749E2
:10B9B00081F84100E078FF2804D1002003E0AEE0E8
:10B9C000D3E07CE0E0788006000E804981F84200F8
:10B9D000A178FF2901D1002100E0A1780846FCF7F9
:10B9E00097FF41EC190B9FED7C0B53EC102BFCF7F0
:10B9F000AEFE41EC180BFCF7A9FF7449C876002095
:10BA000003E055E0B0E06CE00EE181F85C0081F805
:10BA10005D00E179FF2901D1002100E0A17808460D
:10BA2000FCF776FF41EC190B9FED6B0B53EC102BE1
:10BA3000FCF78DFE41EC180BFCF788FF6349087793
:10BA400020788000A1F87700D3E1B4F803005F49C3
:10BA5000A1F80300A078C871CBE16078FCF769FF1A
:10BA600041EC190B9FED5C0B53EC102BFCF76FFEB8
:10BA700041EC180BFCF76AFF54494875A07881F82F
:10BA800032002078C0F3011081F848002078C0F31C
:10BA9000810081F84900207800F0030081F84A0015
:10BAA000A7E1A6E1A5E120884849A1F86200A0E14C
:10BAB000607800F00700454981F8790099E16068F5
:10BAC000FCF737FF41EC190B9FED450B53EC102BA6
:10BAD000FCF73DFE41EC180BFCF738FF3B490880B2
:10BAE00087E186E1B4F80100FCF723FF41EC190B74
:10BAF0009FED3D0B53EC102BFCF729FE41EC180B8E
:10BB0000FCF724FF3149A1F805002078FF2801D176
:10BB1000002000E020782D4981F8610069E168E1AA
:10BB200060782A49487760788877A078887360E1E0
:10BB300020782649C872B4F80300FCF7FAFE41ECFD
:10BB4000190B9FED230B53EC102BFCF700FE41EC7F
:10BB5000180BFCF7FBFE1D49888160798873002073
:10BB6000A1F80F0045E144E143E16078174981F80D
:10BB700072003EE100BF60881449A1F8690038E115
:10BB800020881249A1F8640033E120880F49A1F808
:10BB900066002EE100CAFE18520FF018003EFD1498
:10BBA000000AF00C00FD0FF30076F2FF56A202FC33
:10BBB000004D22FC00F2EEFFAFF0FBFFAEA20D0045
:10BBC000AE6C0D00520EF3FF00CB12FC8042002041
:10BBD000000000000000A03F9A9999999999D93FD7
:10BBE000000000000000E03F000000000000C03F37
:10BBF000FFE020888349A1F86B00FAE000BF2088AD
:10BC00008049A1F87300F4E0A0887E49A1F875008E
:10BC1000EFE0A0887B49A1F86F00EAE0207879493D
:10BC200081F86800E5E0E4E0E3E0E2E0E1E02068DC
:10BC3000FCF77FFE41EC190B1FED170B53EC102B9B
:10BC4000FCF785FD41EC180BFCF780FE6D49C1F84F
:10BC50001100CEE0B4F8011001EB81014800C117DA
:10BC600000EB11610912674AA2F8331020788009AD
:10BC7000114681F84B002078C0F3810081F84C0018
:10BC8000A07981F84D00E078400981F84E00E07815
:10BC9000C0F3810081F84F00E07800F0030081F8E4
:10BCA0005000B4F80100A1F85F00A2E02068FCF7A2
:10BCB00040FE41EC1A0B1FED340B53EC102BFCF73C
:10BCC00046FD41EC190B9FED500B53EC102BFCF78C
:10BCD0003EFD41EC180BFCF739FE4A49C1F835002E
:10BCE0006068FCF726FE41EC1A0B1FED410B53EC8C
:10BCF000102BFCF72CFD41EC190B9FED430B53EC83
:10BD0000102BFCF724FD41EC180BFCF71FFE3D49FE
:10BD1000C1F839006DE06CE0206800EB8000394923
:10BD2000C1F83D00606800EB8000C1F8170060E0DA
:10BD30002078FF2801D1002000E02078314981F8E7
:10BD400051006078FF2801D1002000E060782D4983
:10BD500081F85200A078FF2801D1002000E0A078EF
:10BD6000284981F85300E078FF2801D1002000E045
:10BD7000E078244981F85400A0884FF6FF7188428A
:10BD800001D1002000E0A0881E49A1F84300E0791D
:10BD9000FF2801D1002001E0E079001100F00F0040
:10BDA000184981F8550024E02078C0F38100154936
:10BDB00081F85600207800F0030081F85700B4F8AD
:10BDC00001004FF6FF71884201D1002001E0B4F874
:10BDD00001000C49A1F858000BE0204600F020F9C2
:10BDE00007E000BF00BF2146404600F011F800E028
:10BDF00000BF00BF0C35701C06B2BE42FFF6CFACD0
:10BE000000BFC6E480420020000000000000244083
:10BE10002DE9F84380460D4600240027002608F04F
:10BE2000FF0001F0CBFA0446002C02DD0120BDE842
:10BE3000F8834FEA18270FB90120F8E772488742C4
:10BE400019D1D5F8020060B104EB84016F4800EB12
:10BE50004110D5F80210016004216C48401E0155C4
:10BE600089E000216948C01E0155801C0155002051
:10BE7000286068607FE0664887422CD128782028B7
:10BE800001D00120D3E76879CA2804D1A879FE2817
:10BE900001D1E87938B100215C48C01E0155401E2F
:10BEA00001550120C3E701215848001F0155401CDE
:10BEB0000155E978401C01556978881EC11700EBCF
:10BEC0009171891089060A0E5049491E0A550020B1
:10BED000286068604FE04F4887424CD14B48C01EF5
:10BEE000005D012847D14948001F005D297888423C
:10BEF00006D14648001F015D801C005D81420ADDBD
:10BF000000214248C01E0155401E015500202860F6
:10BF1000686001208BE73D48001F005D01280AD1C1
:10BF200004EB8401394800EB4110D5F8031001609F
:10BF3000E979017116E03548001F005D801EC0EBF5
:10BF4000C000401D00F0FF0904EB84012F4800EB06
:10BF500041104844D5F801100160B5F80510818002
:10BF6000E97981712948001F005D401CC1B2274852
:10BF7000001F015500BF00244FF4F1712648FCF763
:10BF8000E8F92249491F0879C11700EB917189101E
:10BF9000214A118000262DE000201C49895D8DF882
:10BFA00000101A49721C895C8DF801101749B21CE7
:10BFB000895C49098DF8021000218DF8031016499B
:10BFC000891C01EB8401009A0A601049B21C895C4B
:10BFD00001F01F021049A23101EB84010A600B49F4
:10BFE000885920F07F400D4931440860361D611C9E
:10BFF000CCB200BF0548401F0079B04201D9282CBF
:10C00000CADB002013E70000CAFE1800BB41002075
:10C01000FFEC1800FFEB1800D43F00201641002071
:10C0200070B58AB0054600246878622826D16888F1
:10C03000B0F5FA7F22D12879C00942490870084634
:10C04000007820B9CB213F48FCF783F946E0002671
:10C05000022000900020ADF8040001F0D9FA064655
:10C060002EB1002328226946304605F0EFFB2879DF
:10C0700000F03F003349A1F801002FE06878801FED
:10C08000052190FBF1F02F49B1F80110884213D13E
:10C09000A878592810D10026032000900020ADF880
:10C0A000040001F0B5FA06462EB1002328226946A5
:10C0B000304605F0CBFB11E028782138C4B2082CBB
:10C0C0000CDCC4EBC4011F4867300844D5F80110EC
:10C0D0000160B5F805108180E9798171002429E0BB
:10C0E00004EB840117486730415C6438015504EB68
:10C0F0008401491C00F16402505A04F039F91149D5
:10C10000173101EB4401088004EB8400C01C0D4989
:10C110006731095C0B483F30015504EB8400001D7A
:10C1200008496731085C00F00101064853300155A9
:10C13000601CC4B20348B0F80100A042D0DC00206B
:10C140000AB070BDFA42002070B590B006460C46A9
:10C150000025342103A8FCF7FCF800200290019090
:10C1600013A12046FCF700F90546BDB101AB02AAB8
:10C1700011A12846FCF712F90298C0B28DF80D0003
:10C180000198C1B28DF80E1000208DF80C003422F9
:10C1900003A93046FCF7C4F810B070BDFC208DF840
:10C1A0000C00342203A93046FCF7BAF800BFF3E7CD
:10C1B0002B4353513A0000002B4353513A25642C32
:10C1C0002564000070B594B006460C46342107A8DB
:10C1D000FCF7BFF800251AA12046FCF7C5F8054674
:10C1E0001DB306A805A904AB03AACDE9001017A149
:10C1F0002846FCF7D3F800208DF81C000398C0B245
:10C200008DF81D000498C1B28DF81E100598C1B2BA
:10C210008DF81F100698C1B207A80171342207A932
:10C220003046FCF77DF814B070BDFC208DF81C0082
:10C23000342207A93046FCF773F800BFF3E700008B
:10C240002B4D495043414C4C3A2031002B4D495025
:10C2500043414C4C3A20312C25642E25642E256414
:10C260002E25640D0A00000070B58EB006460C46FF
:10C27000342101A8FCF76DF8002514A12046FCF735
:10C2800073F805464DB100208DF80400342201A951
:10C290003046FCF745F80EB070BD0DA12046FCF706
:10C2A00063F8054645B1FF208DF80400342201A94A
:10C2B0003046FCF735F8EEE7FC208DF80400342218
:10C2C00001A93046FCF72CF800BFE4E74F4B000013
:10C2D0004552524F52000000F0B597B007460D4648
:10C2E00034210AA8FCF735F8002620A12846FCF7DF
:10C2F0003BF80646002E2FD009A808A907AA06ABCE
:10C30000CDE90032CDE9021005AB04AA19A13046EF
:10C31000FCF744F804A803F06BFB00F5E14004903F
:10C3200004A803F01FFB044620788DF8290021792A
:10C330000AA88170217AC170217B0171217C417131
:10C34000217D817100208DF8280034220AA9384609
:10C35000FBF7E6FF17B0F0BDFC208DF82800342273
:10C360000AA93846FBF7DCFF00BFF3E72B43434C39
:10C370004B3A00002B43434C4B3A202225642F2597
:10C38000642F25642C25643A25643A25642B00002B
:10C3900070B58EB006460C46342101A8FBF7D9FFD4
:10C3A00000250020009012A12046FBF7DDFF054686
:10C3B000A5B16A4610A12846FBF7F0FF00980128B6
:10C3C0000CD100208DF8040001208DF805003422E6
:10C3D00001A93046FBF7A4FF0EB070BDFC208DF81C
:10C3E0000400342201A93046FBF79AFF00BFF3E7AF
:10C3F0002B43474154543A002B43474154543A206D
:10C400002564000070B58EB006460C46342101A8A4
:10C41000FBF79FFF002514A12046FBF7A5FF05466B
:10C42000C5B16A4612A12846FBF7B8FF009801285B
:10C4300002D0009805280DD100208DF80400009846
:10C44000C0B28DF80500342201A93046FBF768FF21
:10C450000EB070BDFC208DF80400342201A93046D6
:10C46000FBF75EFF00BFF3E72B43475245473A0017
:10C470002B43475245473A20252A642C2564000067
:10C4800070B58EB006460C46342101A8FBF761FF5B
:10C49000002511A12046FBF767FF054695B10DF178
:10C4A00005020FA12846FBF779FF00208DF8040054
:10C4B00014208DF83700342201A93046FBF730FFF5
:10C4C0000EB070BDFC208DF80400342201A9304666
:10C4D000FBF726FF00BFF3E72B434349443A000034
:10C4E0002B434349443A2025730000002DE9F041D5
:10C4F0008EB080460E46342101A8FBF72AFF0024A7
:10C50000002716A13046FBF72FFF0446DCB1A41C20
:10C5100012A12046FBF728FF0746A7B1381BC5B27A
:10C520002A4621460DF10500FBF7FAFE8DF837503B
:10C5300000208DF80400342201A94046FBF7F0FEEC
:10C540000EB0BDE8F081FC208DF80400342201A972
:10C550004046FBF7E5FE00BFF2E700000D0A0000D1
:10C5600070B58EB005460C46342101A8FBF7F1FEEC
:10C5700000260DA12046FBF7F7FE06464EB100202F
:10C580008DF80400342201A92846FBF7C9FE0EB03D
:10C5900070BDFC208DF80400342201A92846FBF769
:10C5A000BFFE00BFF3E70000415420636F6D6D6173
:10C5B0006E64207265616479000000002DE9FF4F10
:10C5C0008DB00E469846DDF86CA04FF000090024AF
:10C5D00000BF00BF0A2764211A9800FB01F55149EA
:10C5E00000235A1E0868194605F002F88EB131463C
:10C5F00004200F9A03F0C8FC044624B121464AA047
:10C600000F9AFEF719F90A2090FBF7FB584604F041
:10C610007FFB00BF524803F07FFB81465148006812
:10C620004844B0F5966F07D900204E4908604FF492
:10C6300084514D48FBF78DFE1FFA89F24A48494B59
:10C640001B68C118464803F08DFB0446002C45D0FA
:10C650004548444A126881186846C0474148006806
:10C660002044404908609DF80000A8B900200860F7
:10C670004FF484513C48FBF76CFE2A4900231A46CC
:10C680000868194605F0E2F8342269460D98FBF770
:10C6900047FE11B0BDE8F08FBAF1000F1ED05EB1B9
:10C6A000314604200F9A03F06FFC044624B1214662
:10C6B0002EA00F9AFEF7C0F82A480068001B2949EF
:10C6C00008604FF47A7090FBF7FB584604F020FBAB
:10C6D000642D01D9633D00E0002507E00A2090FBAE
:10C6E000F7FB584604F014FB6D1E00BF002D91DCD3
:10C6F00000201C4908604FF484511B48FBF729FEB9
:10C70000084900231A460868194605F09FF8FC20DE
:10C710008DF80000342269460D98FBF701FE00BF3A
:10C72000B7E70000180000202D2D202831292067B0
:10C730007072732075617274206465766963207706
:10C7400072697465206572726F722E20775F6C65F6
:10C750006E3A25642C206C656E3A25640D0A000043
:10C76000E808002020000020042A00202D2D202889
:10C770003229206770727320756172742064657647
:10C780006963207772697465206572726F722E20FA
:10C79000775F6C656E3A25642C206C656E3A256473
:10C7A0000D0A000070B58EB005460C46342101A874
:10C7B000FBF7CFFD00260DA12046FBF7D5FD064671
:10C7C0004EB100208DF80400342201A92846FBF761
:10C7D000A7FD0EB070BDFC208DF80400342201A925
:10C7E0002846FBF79DFD00BFF3E700002B435049AF
:10C7F0004E3A2052454144590000000010B5B0B0F7
:10C80000342123A8FBF7A5FD802103A8FBF7A1FD98
:10C81000134900235A1E4868194604F0E9FE11A185
:10C8200003A8FEF719F803A8FBF7B0FD84B20020B7
:10C830000521114B2246CDE9001003A923A8FFF7DB
:10C84000BDFE074900231A464868194604F0FEFF5A
:10C850009DF88C0010B9002030B010BD0120FBE71E
:10C860001800002041542B434E4D493D312C322CB1
:10C87000302C312C300D0A0069C2000810B5B0B060
:10C88000342123A8FBF765FD802103A8FBF761FD98
:10C89000134900235A1E4868194604F0A9FE11A145
:10C8A00003A8FDF7D9FF03A8FBF770FD84B20020B1
:10C8B00005210F4B2246CDE9001003A923A8FFF75D
:10C8C0007DFE074900231A464868194604F0BEFF5A
:10C8D0009DF88C0010B9002030B010BD0120FBE79E
:10C8E0001800002041542B434D47463D310D0A00AE
:10C8F00069C2000800B58FB00F4900235A1E48686E
:10C90000194604F075FE00201E210C4B0422CDE9CF
:10C9100000100BA102A8FFF751FE074900231A4699
:10C920004868194604F092FF9DF8080010B90020ED
:10C930000FB000BD0120FBE71800002069C200080D
:10C9400041540D0A0000000000B58FB00F490023CC
:10C950005A1E4868194604F04BFE00201E210C4B5D
:10C960000622CDE900100BA102A8FFF727FE074918
:10C9700000231A464868194604F068FF9DF808002D
:10C9800010B900200FB000BDFF20FBE71800002009
:10C9900069C20008415445300D0A000030B59DB011
:10C9A00004460D46154900235A1E4868194604F0EE
:10C9B0001FFE00201E21124B0922CDE9001011A1FB
:10C9C00003A8FFF7FBFD342203A910A8FBF7A8FC7E
:10C9D0000A4900231A464868194604F037FF9DF8B3
:10C9E000400048B99DF873200DF141012046FBF746
:10C9F00097FC00201DB030BD0120FBE7180000208F
:10CA000081C4000841542B434349440D0A000000EF
:10CA100010B59CB0044600202070144900235A1E13
:10CA20004868194604F0E4FD00201E21104B0B223B
:10CA3000CDE900100FA102A8FFF7C0FD342202A922
:10CA40000FA8FBF76DFC094900231A4648681946F0
:10CA500004F0FCFE9DF83C0028B99DF83D002070D4
:10CA600000201CB010BD0120FBE7000018000020D2
:10CA700091C3000841542B43474154543F0D0A00D1
:10CA800010B59CB0044600202070144900235A1EA3
:10CA90004868194604F0ACFD00200521104B0B221C
:10CAA000CDE900100FA102A8FFF788FD342202A9EA
:10CAB0000FA8FBF735FC094900231A4648681946B8
:10CAC00004F0C4FE9DF83C0028B99DF83D0020709C
:10CAD00000201CB010BD0120FBE700001800002062
:10CAE00005C4000841542B43475245473F0D0A00F7
:10CAF00010B59CB0044634210FA8FBF72AFC14495A
:10CB000000235A1E4868194604F072FD00200521D2
:10CB1000104B0822CDE900100FA102A8FFF74EFD2F
:10CB2000342202A90FA8FBF7FBFB094900231A4690
:10CB30004868194604F08AFE9DF83C0028B99DF823
:10CB40003D00207000201CB010BD0120FBE700005C
:10CB50001800002049C1000841542B4353510D0ACD
:10CB60000000000030B59DB004460D461549002375
:10CB70005A1E4868194604F03BFD00201E21124B46
:10CB80000822CDE9001011A103A8FFF717FD3422F8
:10CB900003A910A8FBF7C4FB0A4900231A464868FA
:10CBA000194604F053FE9DF8400048B99DF87320E3
:10CBB0000DF141012046FBF7B3FB00201DB030BD55
:10CBC0000120FBE718000020EDC4000841542B476A
:10CBD000534E0D0A0000000010B59CB004463421ED
:10CBE0000FA8FBF7B6FB184900235A1E48681946E0
:10CBF00004F0FEFC00200A21144B0D22CDE90010A8
:10CC000013A102A8FFF7DAFC342202A90FA8FBF750
:10CC100087FB0D4900231A464868194604F016FEA2
:10CC20009DF83C0070B99DF83D0020700FA88078F9
:10CC300060700FA8C078A0700FA80079E070002085
:10CC40001CB010BD0120FBE718000020C5C1000882
:10CC500041542B4D495043414C4C3F0D0A000000BC
:10CC600010B59CB0044634210FA8FBF772FB1B499A
:10CC700000235A1E4868194604F0BAFC01203C21E2
:10CC8000174B0A22CDE9001016A102A8FFF796FC67
:10CC9000342202A90FA8FBF743FB104900231A46D0
:10CCA0004868194604F0D2FD9DF83C00A0B99DF8F3
:10CCB0003D0020600FA8807860600FA8C078A06059
:10CCC0000FA80079E0600FA8407920610FA8807953
:10CCD000606100201CB010BD0120FBE7180000209F
:10CCE000D9C2000841542B43434C4B3F0D0A00006E
:10CCF00010B590B0044600202070114900235A1E40
:10CD00004868194604F074FC00201E210D4B0A22CD
:10CD1000CDE900100CA103A8FFF750FC084900233F
:10CD20001A464868194604F091FD9DF80C0020B998
:10CD300001202070002010B010BD0120FBE7000092
:10CD400018000020A5C7000841542B4350494E3F0E
:10CD50000D0A00002DE9F047ADF50C7D0746884629
:10CD600000208B908A900024002500268146824670
:10CD7000202182A8FBF7EDFA3D4600BF43A12846DB
:10CD8000FBF7F2FA0446002C43D02646AE4207D900
:10CD9000701B1FFA80F94A4629463F4803F04CF8B9
:10CDA0008AAA3EA12046FBF7F9FA8A980A2802DAF5
:10CDB0004FF0010A0EE08A98642802DA4FF0020A66
:10CDC00008E08A98B0F57A7F02DA4FF0030A01E0B2
:10CDD0004FF0040A0AF10D0004448A9880B2ADF8BD
:10CDE000040021460DF106008A9AFBF799FA3048B3
:10CDF0008B9950F8210048B12D498B9A51F82200A7
:10CE0000002340F2022201A904F020FD8A9825188F
:10CE100000BF28A13846FBF7A7FA044614B38AAB33
:10CE20008BAA27A12046FBF7B9FA21488B9950F825
:10CE30002100B0B11FA00168CDF806104168CDF8FF
:10CE40000A100089ADF80E000A20ADF80400184958
:10CE50008B9A51F82200002340F2022201A904F02B
:10CE6000F5FC00BF002C89D107EB0806AE4207D9BC
:10CE7000701B1FFA80F94A462946074802F0DCFF7A
:10CE800000200DF50C7DBDE8F08700002B4D4950CA
:10CE9000525443503A200000E80800202B4D4950DE
:10CEA000525443503A20252A642C25640000000087
:10CEB000F42900202B4D4950535441543A000000AE
:10CEC0002B4D4950535441543A2025642C25642C51
:10CED0000000000010B5044604F0FEFE0249486060
:10CEE0000846048110BD0000843A002010B59CB0B3
:10CEF0001A4900235A1E4868194604F079FB32216A
:10CF00000DF13D00FBF725FA15A217A10DF13D002B
:10CF1000FDF7A2FC0DF13D00FBF738FA84B20020CA
:10CF20001E21164B2246CDE900100DF13D0102A84D
:10CF3000FFF744FB342202A90FA8FBF7F1F90749D8
:10CF400000231A464868194604F080FC9DF83C000E
:10CF500010B900201CB010BD0120FBE71800002014
:10CF6000434D4E455400000041542B4D4950434120
:10CF70004C4C3D312C222573220D0A0069C2000859
:10CF800000B58FB00F4900235A1E4868194604F0B7
:10CF90002FFB00201E210C4B0C22CDE900100BA111
:10CFA00002A8FFF70BFB074900231A4648681946F9
:10CFB00004F04CFC9DF8080010B900200FB000BD33
:10CFC0000120FBE71800002069C2000841542B43F0
:10CFD000475245473D310D0A0000000008B50020CA
:10CFE000009011484068401C00B908BD04F074FE70
:10CFF0000D494968401A14D04FF0FF300A49486083
:10D000000846006818B10868694604F06FFD00988A
:10D0100038B14FF0805005490860BFF34F8FBFF320
:10D020006F8F00BFE1E70000843A002004ED00E0CC
:10D0300000B58FB0104900235A1E4868194604F005
:10D04000D7FA002028210D4B0246CDE900100146F9
:10D0500002A8FFF7B3FA084900231A4648681946A0
:10D0600004F0F4FB9DF8080010B900200FB000BDDB
:10D070004FF0FF30FAE700001800002061C50008FB
:10D080000EB58D480068401C8B4908600846006852
:10D09000C821B0FBF1F201FB120000287ED1019003
:10D0A00002908648007830B955208DF804000120A0
:10D0B0008249087005E0AA208DF8040000207F490D
:10D0C000087001F0D1FEC0B28DF8050001F0D2FE6B
:10D0D000ADF80600082001AB794A0121009008460E
:10D0E00002F014FF0020019002908DF8040001F07E
:10D0F000CDFE8DF80500082001AB724A0121009099
:10D10000084602F003FF00200190029001208DF8F4
:10D1100004000C208DF80500082001AB6A4A0121AB
:10D120000090084602F0F2FE00200190029001906B
:10D130000290082001AB654A01210090084602F0E8
:10D14000E5FE002001900290082001AB604A012119
:10D150000090084602F0DAFE0020019002900820BC
:10D1600001AB5C4A01210090084602F0CFFE00208E
:10D170008DF804008DF805008DF8060016208DF856
:10D1800007000B208DF8080002208DF8090001200F
:10D190008DF80A0003208DF80B0000E007E008205E
:10D1A00001AB4D4A01210090084602F0AFFE424813
:10D1B0000068C821B0FBF1F201FB1200002844D145
:10D1C000019002904548007820B1012816D002282D
:10D1D0003AD127E0E5208DF80400FE208DF8050007
:10D1E000082001AB3E4A01210090084602F08EFE65
:10D1F0003A480078401C3949087025E0E9208DF84C
:10D200000400FE208DF80500082001AB344A0121FE
:10D210000090084602F07AFE30480078401C2F4902
:10D22000087011E0D5208DF80400FD208DF8050070
:10D23000082001AB2A4A01210090084602F066FE50
:10D2400000202649087000BF00BF1B4800684FF44B
:10D25000FA71B0FBF1F201FB120058BB0020019003
:10D260000290204800788DF804001E480078401C89
:10D270001C49087001208DF8050001F001FE18B965
:10D2800002208DF8060002E001208DF8060001F072
:10D29000E5FD562803D102208DF8070002E00120A9
:10D2A0008DF80700082001AB0F4A012100900846C5
:10D2B00002F02CFE0EBD00002C00002030000020EB
:10D2C0005810BC185820BC185830BC185831BC181D
:10D2D0005832BC185840BC185850BC1831000020B7
:10D2E0002100EA1832000020F936FF1810B5014677
:10D2F00009B9012010BD0868632801D90120F9E7A8
:10D3000048680C2801D8486808B90120F2E7486845
:10D310000D2841D2DFE800F0400720081509160A61
:10D320000B170C180D0000BF00BF00BF00BF00BFEF
:10D3300000BF88681F2801D3886808B90120D9E791
:10D340002AE000BF00BF00BF88681E2801D388689C
:10D3500008B90120CEE71FE0088800F5FA6082B224
:10D360004FF4C87392FBF3F403FB142363B1D31798
:10D3700002EB93739B10A2EB830363B9642392FBCC
:10D38000F3F403FB142333B188681D2801D888689F
:10D3900008B90120AEE700BF00BFC868172801D94F
:10D3A0000120A7E708693B2801D90120A2E74869C5
:10D3B0003B2801D901209DE700209BE7014609B9E0
:10D3C00000207047F02901D10120FAE7032901D19B
:10D3D0000220F6E7172901D10320F2E7FF20F0E74A
:10D3E00082B0CDE9000121F0004001909DED000BDD
:10D3F00002B051EC100B704710B52DED0E8B354976
:10D40000D1F86A00FBF795FA41EC1E0B9FED320B49
:10D4100053EC102BFBF70DFA41EC1A0B2D49D1F808
:10D420006E00FBF786FA41EC1E0B9FED2B0B53ECC5
:10D43000102BFBF7FEF941EC1B0B2649D1F86200DB
:10D44000FBF777FA41EC1E0B9FED230B53EC102BEF
:10D45000FBF7EFF941EC1C0B1E49D1F86600FBF716
:10D4600068FA41EC1E0B9FED1C0B53EC102BFBF7E5
:10D47000E0F941EC1D0BB0EE4A3AF0EE6A3AB0EE3C
:10D480004B2AF0EE6B2AB0EE4C1AF0EE6C1AB0EEAE
:10D490004D0AF0EE6D0AFCF7AFF8B0EE409AF0EEF0
:10D4A000609A9FED0F0B53EC102B51EC190BFBF70F
:10D4B0004EF941EC180B9FED0C0B53EC102B51EC7B
:10D4C000180BFBF75DFA03D20020BDEC0E8B10BDEC
:10D4D0000120FAE7620100200000000080842E4154
:10D4E0000000000000408F4000000000008051401C
:10D4F00070B504460D46E1B20548FDF798F900BF46
:10D5000040210348FDF7F2F80028F9D0204670BD0D
:10D510000010014070B52DED088B04469FED360BD1
:10D52000B0EE409AF0EE609A01259FED350BB0EE1B
:10D53000408AF0EE608A20782D2802D10025641CF4
:10D5400003E020782B2800D1641C1CE020782E28D2
:10D5500001D1641C1AE02178A1F13000FBF7D8F961
:10D5600041EC1A0B9FED240B53EC102B51EC180BD4
:10D57000FBF7EDF841EC1B0B53EC1A2BFBF740F8D3
:10D5800041EC180B641C20780028DFD100BF1DE09F
:10D590002178A1F13000FBF7BBF941EC1B0B53ECF8
:10D5A000192BFBF746F941EC1A0B53EC182BFBF740
:10D5B00027F841EC180B9FED100B53EC102B51EC9E
:10D5C000190BFBF7C4F841EC190B641C20780028F8
:10D5D000DED135B1B0EE480AF0EE680ABDEC088B3A
:10D5E00070BD9FED090B53EC102B51EC180BFBF7A2
:10D5F000AEF841EC100BF1E7000000000000244001
:10D600000000000000000000000000000000F0BF6B
:10D6100001480068704700002800002030B503462C
:10D620000C46002500210BE0605C2C2801D1681C11
:10D63000C5B29D4202D1481CC0B230BD481CC1B227
:10D640009142F1DB0020F8E72DE9F05F82460E46BB
:10D6500015461F46DDF828B05A4629465046FFF7C2
:10D66000DDFF04465A4629463046FFF7D7FF80467D
:10D6700014B1B8F1000F02D10020BDE8F09F05EB16
:10D680000409A8EB0400401EC4B2322C01DD0020C6
:10D69000F3E7224649463846FAF742FE2046ECE7D1
:10D6A0000148006870470000080000201CB50446CF
:10D6B0000CB901201CBD01A90020FCF705FC69463E
:10D6C0000020FCF7C7FB9DF8030020609DF80100D7
:10D6D00060609DF80200A0609DF80400E0609DF885
:10D6E000050020619DF8060060610020E2E710B5AA
:10D6F00092B00CA8FFF7DAFF0C98643006900D98F2
:10D70000401E05900E9804900F9803901098029078
:10D710001198019001A8FAF7AFFDA0F5E144204669
:10D7200012B010BD2DE9F0470746884600240026B8
:10D730000025A146A2463D4600BF06E0642C02DD5E
:10D740000020BDE8F087601CC4B2285D2A28F5D10E
:10D75000012604E0A85D80EA0909701CC6B2A64251
:10D76000F8DBE01CA8F80000A21CA95C621CA85C05
:10D7700000F0EAF98246D14501D10120E1E700201D
:10D78000DFE700002DE9F843064688460024002024
:10D79000009000273746AC48007898B9ABA13846CE
:10D7A000FAF7E2FD18B10120A74908700AE0A9A123
:10D7B0003846FAF7D9FD18B10220A349087001E0F4
:10D7C000BDE8F8830024A0480078012805D19FA176
:10D7D0003846FAF7C9FD044608E09B48007802285D
:10D7E00004D19CA13846FAF7BFFD04464CB1694606
:10D7F0002046FFF797FF20B1BDF80010204600F04B
:10D80000CDFB002490480078012805D193A138462B
:10D81000FAF7AAFD044608E08B480078022804D1F4
:10D8200090A13846FAF7A0FD04464CB1694620465F
:10D83000FFF778FF20B1BDF80010204600F016FB7E
:10D8400000248AA13846FAF78FFD04464CB1694698
:10D850002046FFF767FF20B1BDF80010204600F01A
:10D8600071FB002483A13846FAF77EFD04464CB1D3
:10D8700069462046FFF756FF20B1BDF8001020464C
:10D8800000F0C8FA7DA13846FAF76EFD044614B3DD
:10D8900069462046FFF746FFE8B17AA13846FAF715
:10D8A00063FD04461CB10020794981F8560079A136
:10D8B0003846FAF759FD04461CB10120744981F835
:10D8C000560078A13846FAF74FFD04461CB10220F5
:10D8D0006F4981F856006E48007841287DD16C4828
:10D8E00090F87200052872D2DFE800F003151617D1
:10D8F00032006748D0F866006549C1F86E000846F6
:10D90000D0F86200C1F86A00084690F87200401C26
:10D9100081F8720060E000BF00BFFFF76DFD0028D6
:10D9200011DD5B48D0F866005949C1F86E00084621
:10D93000D0F86200C1F86A00084690F87200401CF6
:10D9400081F8720003E00020514981F8720043E041
:10D95000FFF752FD002828DD4D48D0F866004C49FD
:10D96000C1F86E000846D0F86200C1F86A000846A7
:10D97000D0F86600C1F807000846D0F86200C1F888
:10D980000300084600780870002081F873000846FC
:10D9900090F87400412817D00846007881F8740088
:10D9A0004FF47A70C1F816000EE0394890F8731001
:10D9B00090F87300401C364A82F87300032903DD97
:10D9C0000020114681F8720006E006E0FFE7002023
:10D9D0002F4981F8720000BF04E056202C4981F8DD
:10D9E000740008702A48007841281CD12848D0F8D3
:10D9F0001600401C2649C1F81600B0F5167F02D368
:10DA00000020C1F81600FFF772FE2149096D451A82
:10DA1000002D02DC15F1050F04DA1D48016D25A06B
:10DA2000FCF70AFF0EE01A48B0F86010B0F860008A
:10DA3000401C174AA2F86000F02903DD00201146BF
:10DA4000A1F8600000BFBBE60100002024474E5251
:10DA50004D430000244750524D43000024474E4799
:10DA600047410000244750474741000024475047A2
:10DA700053560000244244475356000024474E5456
:10DA800058540000414E54454E4E41204F4B00002B
:10DA900062010020414E54454E4E41204F50454EAC
:10DAA00000000000414E54454E4E412053484F5215
:10DAB000540000002D2D20476E73732063616C6944
:10DAC00062726174696F6E207274632074696D652F
:10DAD0002E2E2E2E2E2E25750D0A000010B5044672
