:020000040800F2
:10000000388B002051030008590300085B030008E7
:100010005D0300085F0300086103000800000000A2
:10002000000000000000000000000000B90200080D
:100030006503000800000000FD020008913B000875
:100040006B0300086B0300086B030008D53700083A
:100050006B0300086B030008792F00086B0300088E
:100060006B0300086B0300086B0300086B030008B8
:100070006B0300086B0300086B0300086B030008A8
:100080006B0300086B0300086B0300086B03000898
:10009000714000086B0300086B0300086B03000845
:1000A0006B0300086B0300086B0300086B03000878
:1000B0006B030008253C00086B0300086B03000875
:1000C0006B0300086B0300086B0300086B03000858
:1000D0006B030008993D0008C93D00086B03000848
:1000E0006B030008353700086B0300086B0300083A
:1000F0006B0300086B0300086B0300086B03000828
:100100006B0300086B0300086B0300086B03000817
:10011000693D00086B0300086B0300086B030008CF
:100120006B0300086B0300086B0300086B030008F7
:1001300000F002F800F0B0F80AA090E8000C824449
:100140008344AAF10107DA4501D100F0A5F8AFF226
:10015000090EBAE80F0013F0010F18BFFB1A43F0A5
:10016000010318475CD800007CD800000A444FF017
:10017000000C10F8013B13F0070408BF10F8014B06
:100180001D1108BF10F8015B641E05D010F8016B4B
:10019000641E01F8016BF9D113F0080F1EBF10F8AF
:1001A000014BAD1C0C1B09D16D1E58BF01F801CBD2
:1001B000FAD505E014F8016B01F8016B6D1EF9D555
:1001C0009142D6D37047000000230024002500266A
:1001D000103A28BF78C1FBD8520728BF30C148BFAA
:1001E0000B6070476E2900F0EE84702900F04F8696
:1001F00066290DF0618365290DF05E8367290DF096
:100200005B8361290DF05A8303681B0A28BF41F004
:100210008001692900F03C81642900F03981752949
:1002200000F036816F2900F0DC85782900F01B860C
:10023000E92900F07785E42900F07485F52900F0BC
:100240007185EF2900F0D985F82900F01A86036836
:10025000DB0928BF41F08001632900F0F88473298D
:1002600000F0FD84E32901F04782F32901F04C827C
:10027000002070471FB501F057FC0400002000214A
:100280000CF01CFE401C6060002000210CF000FE01
:10029000E0601FBD10B510BD01F018FC1146FFF75E
:1002A000E9FF08F06DFE01F0F5FC03B4FFF7F2FF83
:1002B00003BC01F039FD0000224B19680868B0E862
:1002C000F00F80F30988BFF36F8F4FF0000080F3C9
:1002D00011884EF00D0E70470000000006480068BF
:1002E000006880F3088862B661B6BFF34F8FBFF332
:1002F0006F8F00DF00BF00BF08ED00E0EFF3098063
:10030000BFF36F8F0F4B1A6820E9F00F106008B52C
:100310004FF0BF0080F31188BFF34F8FBFF36F8F93
:100320000BF0DEFF4FF0000080F31188BDE80840BD
:1003300019680868B0E8F00F80F30988BFF36F8F81
:10034000704700BFBC000020EFF30580704700003D
:100350000948804709480047FEE7FEE7FEE7FEE759
:10036000FEE7FEE7FEE7FEE7FEE7FEE70448054995
:10037000054A064B70470000C53B000831010008E4
:1003800038850020388B00203887002038870020EF
:100390007CB51D4616460C00009001D02044401E3E
:1003A000074B7B442A4669460190304600F025FC05
:1003B00005461CB10020694600F032FC28467CBD91
:1003C000850800000FB41CB5084B06AA7B4469469B
:1003D0000090059800F011FC04460020694600F0EA
:1003E0001FFC20461CBC5DF814FB000051080000F7
:1003F00070B5044685690068C10601D5302600E065
:100400002026C00707D070BDD4E9012130469047AF
:10041000206A401C20626D1EF6D570BD70B5044682
:1004200085690078C00707D170BDD4E9012120207B
:100430009047206A401C20626D1EF6D570BD70B5D5
:100440000C460546012A05D02878800600D5EA69C1
:10045000002302E0012305E05B1C934202D2E05C32
:100460000028F9D1A869E618C01AA861286A1844BA
:1004700028622846FFF7BCFF04E0D5E9012114F803
:10048000010B9047B442F8D32846FFF7C7FF70BD71
:100490002DE9F0410646002410687529314616A55D
:1004A00010D000F025FB002802DA404213A507E037
:1004B00031688A0701D512A502E0490704D511A5C4
:1004C000012401E000F01DFB00210A2206F12407AF
:1004D00009E0B0FBF2FCB0FBF2F302FB1C00303091
:1004E00078541846491C0028F3D123462A46304642
:1004F000BDE8F04100F00EBB000000002D00000040
:100500002B000000200000002DE9F05F8946044622
:100510004FF0000ADFF874B1FB44C0F820A0204679
:10052000E1688847002874D0252806D0D4E9012145
:100530009047206A401C2062F1E700265F46204673
:10054000E16888472028054607DB312D05D2781958
:1005500010F8200C08B10643F1E7B00701D526F0EA
:100560000406C4F81CA00027C4F818A02A2D09D03E
:10057000284603F0EDFE38B304EB8708303DC8F899
:10058000185019E059F8041B204604EB87029161CA
:10059000E1688847012F054618D1E069002820DA74
:1005A00026F020061DE0D8F8180000EB800005EBCF
:1005B00040003038C8F818002046E16888470546F2
:1005C00003F0C6FE0028EED1012F0AD02E2D08D14F
:1005D0002046E16888477F1C0546022F46F020062A
:1005E000C4DBA069002803DA404246F00106A0619E
:1005F000F00701D026F010066C2D0BD0682D09D025
:100600004C2D39D06A2D35D0742D35D07A2D33D07C
:1006100016E038E0E1682F4620468847B842054694
:1006200009D16C2F26D04FF48060E1680643204644
:100630008847054604E06C2F1AD04FF480700643BB
:100640000DB3A5F14100192802D8203546F4006603
:100650004A462946204626604E46FFF7C3FD80B134
:1006600001280BD0F61D26F0070000F1080956E717
:100670004020E4E78020D8E70020D6E706F104090F
:100680004DE7284652E7206ABDE8F09FA4D300005A
:100690000FB400B58DB010A9099000910B904FF0E8
:1006A000FF300A9000200C900648784406900648D7
:1006B00078446A4607900F9909A800F007FC0DB02E
:1006C0005DF814FB3F080000570800002DE9FF5FAC
:1006D0001D464FF0FF3B91464FF000085F46D5E9BD
:1006E0000146A96901987F1C8847296A8246884784
:1006F0000028F6D1BAF1FF3F0CD0002E24F4C064DC
:1007000019DD600614D5BAF12B0F09D0BAF12D0FFF
:100710000ED103E0584604B0BDE8F09F44F4806475
:10072000A96901987F1C8847761E8246002E02DD4B
:10073000BAF1300F03D0B9F1000F26D032E0A96929
:10074000761E01987F1C44F400748847002E824670
:1007500005DDBAF1780F06D0BAF1580F03D0B9F120
:10076000000F10D01EE0B9F1000F02D0B9F1100F48
:1007700018D1A969761E01987F1C24F4007488475B
:100780008246102002E0082000E00A20814609E0AD
:10079000A96908FB0908761E01987F1C44F40074BF
:1007A00088478246002E05DD4946504600F07AFB18
:1007B0000028EDDAE96901988847A00502D46FF0B6
:1007C0000100A8E7E00725D1600613D5600502D532
:1007D000C8F1000000E0404629680A1D2A60096847
:1007E000220501D5087015E0220701D5088011E027
:1007F00008600FE02868011D29600068210502D506
:1008000080F8008006E0210702D5A0F8008001E012
:10081000C0F8008038467EE72DE9FF5F4FF0000802
:100820009946144646469169D2E901A7DDF838B0E9
:1008300001988847054659EA0B0005D009E0A169EF
:100840000198761C88470546216A28468847002873
:10085000F5D1681C03D05FEACA7005D015E04FF0EF
:10086000FF3004B0BDE8F09F2068011D2160D0F882
:1008700000800AE05FEACA7001D108F8015BA16953
:10088000761C01987F1E88470546002F1ADD681CDC
:1008900018D0B9F1000F0DD0E81705EBD060421168
:1008A00020F01F0059F822102A1A0120904001421E
:1008B000E0D107E0BBF1000FDCD12846216A884770
:1008C0000028D7D0E16901988847BBF1000F07D114
:1008D000002E05DD5FEACA7002D1002188F8001001
:1008E000A068B84203DDBBF1000F03D017B16FF071
:1008F0000100B6E73046B4E730B505460B462A4658
:1009000013F8014B12F8010B08B1A042F8D01CB14A
:10091000002802D06D1CF1E7284630BD10B5431CFD
:1009200002E010F8011B71B18107FAD14FF00132DA
:1009300002C88C1A8C4314EAC211F9D0C01A0A06F4
:1009400003D0C01E10BDC01A10BD0A0401D0801E05
:1009500010BD0902FCD0401E10BD032A40F23080B9
:1009600010F0030C00F0158011F8013BBCF1020FF0
:10097000624498BF11F801CB00F8013B38BF11F871
:10098000013BA2F1040298BF00F801CB38BF00F888
:10099000013B11F0030300F02580083AC0F0088005
:1009A00051F8043B083A51F804CBA0E80810F5E7E9
:1009B000121D5CBF51F8043B40F8043BAFF30080CC
:1009C000D20724BF11F8013B11F801CB48BF11F841
:1009D000012B24BF00F8013B00F801CB48BF00F811
:1009E000012B704710B5203AC0F00B80B1E81850C9
:1009F000203AA0E81850B1E81850A0E81850BFF409
:100A0000F5AF5FEA027C24BFB1E81850A0E81850A7
:100A100044BF18C918C0BDE810405FEA827C24BFFB
:100A200051F8043B40F8043B08BF7047D20728BF89
:100A300031F8023B48BF11F8012B28BF20F8023BD8
:100A400048BF00F8012B704702F0FF0343EA03227E
:100A500042EA024200F002B84FF000020429C0F05E
:100A6000128010F0030C00F01B80CCF1040CBCF1E0
:100A7000020F18BF00F8012BA8BF20F8022BA1EB32
:100A80000C0100F00DB85FEAC17C24BF00F8012B17
:100A900000F8012B48BF00F8012B70474FF000020F
:100AA00000B5134694469646203922BFA0E80C5064
:100AB000A0E80C50B1F12001BFF4F7AF090728BF3F
:100AC000A0E80C5048BF0CC05DF804EB890028BFBB
:100AD00040F8042B08BF704748BF20F8022B11F0E4
:100AE000804F18BF00F8012B704770477047704760
:100AF00009684A0501D540B27047C905FCD500B266
:100B0000704709684A0501D5C0B27047C905FCD5D0
:100B100080B270472DE9F0470D469946924604464B
:100B200000F124080168880604D5E06921F010016D
:100B3000216000E00120A84201DD471B00E0002702
:100B4000A1697A1902EB0900081AA0612078C00691
:100B500002D42046FFF74CFC002608E0D4E901212E
:100B60001AF806009047206A401C761C20624E4509
:100B7000F4DB2078C0060AD52046FFF739FC06E0F2
:100B8000D4E9012130209047206A401C2062381EA1
:100B9000A7F10107F4DC07E0D4E9012118F805000A
:100BA0009047206A401C2062281EA5F10105F3DC55
:100BB0002046FFF733FC2078000602D50220BDE86E
:100BC000F0870120FBE711680268006A530501D530
:100BD00008700AE0D30501D5088006E0130603D5A6
:100BE000C217C1E9000200E0086001207047000060
:100BF00001694A1C02610878704700B58FB0CDE9E1
:100C000001310021059105497944CDE903101146D0
:100C10006846FFF779FC0FB000BD0000E5FFFFFF5D
:100C20000A6802F8010B0A607047D1E900239A4272
:100C300002D2531C0B601070704710B5436913B19A
:100C4000AFF3008001E0FFF7FAFB012010BD12783E
:100C500000F124010A7000224A700122EDE71168B8
:100C60004FF0FF32E9E700002DE9FF5F15468A46A5
:100C70000446DFF8AC80F8440027D8E900103E466F
:100C8000CDE9001010E03AF816106A4602A800F00C
:100C9000F9FE411C07D02178890603D5E26939188D
:100CA00091420DD80744761C2078800602D5E06971
:100CB000B84205DDAE42E6DB3AF816000028E2D184
:100CC000A069C01BA0612046FFF792FBD8E9001085
:100CD000CDE90010002017E03AF818106A4602A883
:100CE00000F0D0FEB0F1FF3F81460BD000250DF1A2
:100CF000080B05E0D4E901211BF8050090476D1CA5
:100D00004D45F7D308F10100B0428046E4DB206A8C
:100D1000384420622046FFF781FBBDE8FF9F0000BA
:100D20005ACC00002DE9F0418046D21D22F0070286
:100D30000025D2E90002F52915A614D0011E72F192
:100D4000000106DA0023D0EB030063EB020211A6D8
:100D500008E0D8F800108B0701D50FA602E049077C
:100D600001D50EA601251146002408F1240704E050
:100D700000F0DCF830323A55641C50EA0102F7D139
:100D80002B46324621464046BDE8F041FFF7C2BE41
:100D9000000000002D0000002B00000020000000DB
:100DA00030B4002100F1240408E002F00705D20865
:100DB000303542EA4372DB086554491C52EA0305A8
:100DC000F3D10468002310A2250707D5A40600D498
:100DD00021B1C46901230DA2641EC46130BCFFF7B8
:100DE00099BE10B5044621461068FFF78AFE0246F8
:100DF0002046BDE810400023D2E7D21D22F00701B3
:100E0000D1E90023CCE70000000000003000000022
:100E1000F0B40D460188090502D5214C7C4402E05E
:100E20001F4C7C440E34002100F1240608E002F03F
:100E30000F071209E75D42EA03721B097754491C48
:100E400052EA0307F3D102780023120704D5702D6C
:100E500006D009B1022311342246F0BCFFF75ABE76
:100E600001231034F8E770B504460D46214610689A
:100E7000FFF747FE024629462046BDE870400023A2
:100E8000C6E7D21D22F00703D3E90023C0E70368B9
:100E9000126843F0200303600823C3610023B7E70F
:100EA000BCCA00003A2800D2303820F02002412A83
:100EB00001D3A2F13700884201D34FF0FF307047D1
:100EC000026811441378016018467047D1600549E3
:100ED000794451610449794411620021116111463C
:100EE00000F016BCEDFFFFFFDD000000426842B1DC
:100EF000016811F8013B23B1521EC0E900121846E7
:100F000070470121C160881E704742685AB1C368AA
:100F1000016843B983688B4205D0491E521CC0E961
:100F20000012002070474FF0FF30704730B5B0F12D
:100F30000A024FEA900E71F100034EEA817EB0EB97
:100F40000E0061EB91014FEA101E4EEA017E10EB9C
:100F50000E0041EB11114FEA102E4EEA016E10EB1C
:100F60000E0041EB11214FEA104E4EEA014E10EBFC
:100F70000E0041EB1141401841F100014FEAD00051
:100F800040EA41704FEAD10110EB80054FEA81043D
:100F900044EA907444EB01046D1944EB0404521BC1
:100FA000A3414FF0000348BF0A3200D530BD401CBA
:100FB00041F1000130BD10B5044600F0ADFD006800
:100FC000005D00F0010010BD70472DE9FF4F0C4699
:100FD0001E464FF0FF378BB0D2E90001DDF860808C
:100FE0000A908A46C1F30A5505B93D4600210846D4
:100FF0004FF00000BAF1000F00F4400005DA00EBFA
:1010000080004FF4400101EA50004FEA9059B9F1D5
:10101000010F00DDB9460A9850EA4A000ED044F6A6
:101020001050A5F2FF3545432F14B8F1000F1ED024
:101030007542291E1EDDC9F100021CE0B8F1010F46
:101040004FF0000001D0302103E0F24305E02154CD
:10105000401CB042FBDB30460022002121540B999A
:10106000C1F80880C1E900200FB0BDE8F08FBD1BBA
:101070006D1CDEE74A4600DA694206A800F098FDDA
:1010800006AB93E8070003AB83E8070050460A99D4
:1010900000F051FE8DE80700A0F500501F380090C9
:1010A0000398002D0ADD42F21F014A46084400233E
:1010B00003A90390684601F0BAF809E0A0F50050D2
:1010C0004A461F38002303A90390684601F0C4F87C
:1010D0008DE807000004000C03D04FF0FF304108FA
:1010E00000E01046B8F1000F03D000220092154630
:1010F0001EE0751E05D4FFF719FF303262556D1ED4
:10110000F9D5B3460122084302D000227F1C04E037
:101110002078302801D100227F1E002A099784D030
:101120001DE0112D07DAFFF701FF303262556D1C0B
:1011300050EA0102F5D1084302D00098C8B10EE090
:101140000021681E05E0235C625C63542254401E4B
:10115000491C8142F7DBAB46A81B401E09900020CA
:1011600004F80B000B98099AC0F80880C0E9002B1E
:101170007AE711264FF0000857E72DE9F04F88462F
:101180000446D21D22F0070191B0D1E90001CDE95A
:101190000A0103F0C9F802460B98C00F01D02D20B8
:1011A00007E02068810701D52B2002E0202101EA19
:1011B000C000032A099001D0072A05DB03464146F7
:1011C000204600F0B5FC0BE12078800601D5E069EF
:1011D00000E00620B8F1650F814606D0B8F1660F31
:1011E00018D0B8F1670F70D131E00020B9F1110FBC
:1011F000009001DB112301E009F101030AAA01A912
:101200000CA8FFF7E2FEDDE90C70002609F10105EC
:10121000834647E001204B4600904FF000470AAA62
:1012200001A90CA8FFF7D1FEDDE90DB00C995D46D0
:10123000002610B909F101000D18B9EB050003D41F
:10124000C0F1FF3609F10105A5EB09002BE0B9F16A
:10125000010F01DA4FF001090020B9F1110F0090E0
:10126000484601DD112300E003460AAA01A90CA8A3
:10127000FFF7ABFEDDE90C704D4600268346207873
:1012800000070AD4AB4500DA5D4601A8012D04DD54
:10129000411911F8011C302907D04F4502DA17F126
:1012A000040F04DA012082460FE06D1EEEE7002FE6
:1012B00002DCED1B3E4403E0781CA84200DD7D1CEF
:1012C000B81B00F1010A4FF000472078000703D453
:1012D000AA4501DB4FF0FF3A0021B7F1004F0DF1B5
:1012E00043088DF8431024D002202B23002F01DA6D
:1012F0007F422D230A21021EA0F1010000DC5FB114
:1013000097FBF1FC97FBF1F201FB1C7C17460CF1FB
:10131000300C08F801CDEEE7A8F101000370218838
:10132000090501D5452100E06521A0F1010800F87B
:10133000011C09980FA9A1EB0807FF1D00B10120AE
:10134000411901EBEA70A1693844081A401EA061F6
:101350002078C00602D42046FFF74AF8099828B141
:10136000D4E901219047206A401C20622078C00601
:1013700022D52046FFF73CF81EE0002E04DBB345E3
:1013800002DD01A8805D00E03020D4E90121904712
:10139000206A401C2062761CAAF101005FEA000A64
:1013A0000AD100F0C1FBC0680168405CD4E90121AA
:1013B0009047206A401C2062281EA5F10105DCDC54
:1013C00007E0D4E9012118F8010B9047206A401C7E
:1013D0002062381EA7F10107F3DC2046FFF71EF854
:1013E000032011B041E600002DE9F04F04460D4600
:1013F000D21D22F0070089B0D0E90097484639464F
:1014000002F092FF0246F80F01D02D2307E020687A
:10141000810701D52B2302E0202101EAC0038DF8CA
:1014200020300BB1012000E00020032A824601D0C9
:10143000072A04DB2946204600F07AFB3FE12078AA
:10144000800601D40D2500E0E569C7F30A560D2D8D
:1014500049DA00214FEA175B08464FF00000002FE1
:1014600000F4400007DA00EB80004FF4400100EB8D
:10147000D07001EA60008115012901DD4FF0FF31D4
:1014800000224FEA850CBCF1180F06D31346ACF1CD
:1014900018004FF08052C24003E04FF4801323FA4B
:1014A0000CF30CF10C0CBCF1200F04D3ACF1200CAC
:1014B00009FA0CF001E007FA0CF000294FF000489F
:1014C00001DD18B90FE00ED140450CD319EB02092C
:1014D0005F4121B9404502D19F4329EA0209BBEB94
:1014E000175F00D0761C2088000502D57B48784421
:1014F00002E07A487844193808AA302302F80A3002
:10150000037C0AF10101002E0AF1020A53546A46D3
:1015100002DC4FF0300101E04FF031014FF00108E3
:101520008DF8001002D0A6F2FF3603E059EA470119
:1015300000D06B4E002D02DC2178090704D54FF056
:1015400002082E218DF80110C44600210BE0C7F3DC
:1015500003433F01C35C491C6D1E02F80830052996
:1015600008F1010801DA002DF1DC00210CE000EBAC
:101570001973491C1B786D1E082902F808304FEAC0
:10158000091908F1010801DA002DF0DC21688B0649
:1015900002D516E0A8F10108E04505DD02EB0803DD
:1015A00013F8013C302BF5D0B8F1000F09DD02EB48
:1015B000080313F8013C2E2B03D1090701D4A8F12D
:1015C0000108002D05DD3E2102F808106D1E08F10E
:1015D0000108407C002E02F8080008F1010804DA36
:1015E0002D20764202F8080002E02B2002F80800C5
:1015F0000A214FF47A70864208F101080BDB96FB52
:10160000F0F3303302F8083096FBF0F308F10108EC
:1016100000FB136601E0642E0CDB642096FBF0F304
:10162000303302F8083096FBF0F308F1010800FBB4
:10163000136601E00A2E06DB96FBF1F0303002F86B
:10164000080008F1010896FBF1F001FB1060303052
:1016500002F80800A16908F1010808EB050202EB95
:101660000A00081AA0612078C00602D42046FEF7BE
:10167000BFFE216A08AE01EB0A00206204E0D4E953
:10168000012116F8010B9047BAF1010AF7D2207830
:10169000C00602D52046FEF7ABFE6E4609E016F8FE
:1016A000010B3E280FD0D4E901219047206A401C4D
:1016B0002062B8F10108F2D22046FEF7AFFE09B071
:1016C0000320BDE8F08F206A2844206203E0D4E9BB
:1016D0000121302090476D1EEBD3F8E725C40000B0
:1016E00002FCFFFF10B5436913B1AFF3008001E0C6
:1016F000FFF7BAFA012010BD128800F1240182849C
:101700000022C2840122EDE711684FF0FF32E9E7C1
:101710002DE9F34F4FF0000A0C4656468DB00120DC
:101720000C9001F10C000B9062690B98012190471D
:10173000051E2DD0252D2CD0216A8847C0B16269A5
:101740000B9801219047216A88470028F7D16269E8
:10175000411E0B98904700E0761CA1690D988847C0
:10176000216A88470028F7D1E1690D988847DBE7AF
:10177000A1690D988847A842074601D1761CD3E796
:10178000E1690D9888477F1C02D1BAF1000F6FD034
:101790006BE162690B9800273D46394690472A283D
:1017A00004D162690B98012190470125DFF8D082AE
:1017B00062690B9801219047A0F130010A290AD2F1
:1017C0004745E5DC07EB870100EB4107303FDFD4FD
:1017D00045F01005ECE7E90601D46FF000476C28EE
:1017E0000AD04C2814D0682815D06A280DD0742847
:1017F0001CD07A281AD01DE062690B98012190470D
:101800006C2802D045F0040514E045F002050DE017
:1018100045F020050AE062690B980121904768288D
:1018200002D045F0080505E045F4006562690B98B3
:1018300001219047C4E9015765283DD019DC58289B
:101840007AD00CDC452837D004DC252826D0412866
:101850009ED131E046282FD0472899D12CE05B2833
:1018600077D0612828D063287CD0642823D15AE01F
:10187000F6E06F2848D008DC66281DD067281BD00A
:10188000692821D06E2816D127E0702845D073280A
:1018900068D0752847D078280DD14DE0A1690D9802
:1018A0008847252805463FF469AFE1690D988847C8
:1018B0006D1C3FF46AAFD8E00D9923466A466FF07D
:1018C0000100AFF30080C5E045F0400023464FF033
:1018D00000026060A80736D43EE0E8077FF447AF17
:1018E0002068011D21600068290501D506701BE7ED
:1018F000290701D5068017E7A90703D5F117C0E925
:10190000006111E706600FE745F0400023464FF005
:1019100008026060A80716D41EE040F60E0125EA12
:101920000100606016E045F0400023464FF00A02D7
:101930006060A80707D40FE045F040006060A8078A
:1019400008D5234610220D996FF00100AFF30080F7
:1019500080E007E0102223460D996FF00100FEF7AA
:10196000B5FE77E04FF0000963284F46C8464B4666
:10197000CB4602D05B2806D038E0E80601D401202F
:10198000A060012732E06269D4F80CB00B98012105
:1019900090475E2807D14FF0010949466269D4F8A3
:1019A0000CB00B989047216939B900210A4603AB66
:1019B00043F82120491C0829FADBD8B3216949B32F
:1019C00008F1010862690B98012190475D28F4D164
:1019D000B9F1000F09D0002003A951F82020D2430B
:1019E00041F82020401C0828F7DB03AB20690028C1
:1019F00020794FEA40701ED05B462246CDF8008029
:101A0000CDE901970D9900286FF0010020DAAFF3BE
:101A100000801FE0C11703AA00EBD1614B1121F038
:101A20001F0102EB8302411A13680120884003431F
:101A30001360C7E719E00D99224600286FF00100F6
:101A4000009702DAAFF3008004E0FEF7E5FE01E064
:101A5000AFF3008000280ADA401C06D10C9820B1B0
:101A60004FF0FF300FB0BDE8F08F5046FAE7E907BE
:101A700001D10AF1010A064400200C9054E600004E
:101A8000CCCCCC0C70B516460C46054600F044F89C
:101A9000036893F80101012806D0FF2C0FD8185DC8
:101AA00068B101202C7070BDD3F807013246214681
:101AB00003F2071303442846BDE8704018474FF06F
:101AC000FF3070BD00487047D48400207546FFF792
:101AD000F9FFAE4605006946534620F007008546EB
:101AE00018B020B5FEF742FCBDE820404FF00006DC
:101AF0004FF000074FF000084FF0000B21F00701F6
:101B0000AC46ACE8C009ACE8C009ACE8C009ACE838
:101B1000C0098D467047000010B500F005F8001DA3
:101B200010BD00BF99B3000000487047F484002046
:101B30002DE9F0411F46044603260168072A01F4F7
:101B4000006004DB08B116A505E016A503E008B1A6
:101B500015A500E015A521F010002060A069C01EA9
:101B6000A0610FB1401EA0612046FEF741FC4FB1BD
:101B7000D4E9012138469047206A401C2062C01CED
:101B8000206206E0206AFAE7D4E9012115F8010B8A
:101B90009047761EF8D22046FEF740FCBDE8F08163
:101BA0004E414E006E616E00494E4600696E660001
:101BB0002DE9F047814616468AB0354878440DC86D
:101BC0008DE80D0032487844801C03AC0DC884E8D1
:101BD0000D0041F69B300844372190FBF1F290FB59
:101BE000F1F5A5F1800501FB12041B3C02D564420E
:101BF000012000E00020DFF898A080460027FA448A
:101C0000AAF1BE0A0EE0E0070AD03246684607EBAA
:101C1000470101230AEB810100F01EFB8DE807005C
:101C200064107F1C002CEED1194F7F44AE3F19E0A9
:101C3000E80715D007EB04100DF1180A90E80E0024
:101C40008AE80E00C068F04201D198190890324627
:101C5000012306A903A800F0FFFA03AB83E80700FD
:101C60006D10641C002DE3D14FF00103324669462C
:101C7000B8F1000F03A802D000F0D9FA01E000F09B
:101C8000EBFAC9E90001C9F808200AB0BDE8F087FD
:101C9000E8BD000010B50446AFF300802046BDE863
:101CA0001040FEF702BB00004FF0013C50F8042B3F
:101CB00051F8043B9A4221D1A2EB0C03934313EA5F
:101CC000CC1317D150F8042B51F8043B9A4215D18C
:101CD000A2EB0C03934313EACC130BD150F8042B63
:101CE00051F8043B9A4209D1A2EB0C03934313EA47
:101CF000CC13DBD04FF00000704700BFD01A01BA00
:101D0000B1FA81F101F0180122FA01F0CB40C1F1E2
:101D10002001DBB2C0B2C01A2CFA01F3D11A9143F0
:101D200011EAC311E6D1704701491820ABBEFEE7A6
:101D30002600020070475FEA400C08BF91F0000FD8
:101D40004FEA8C234FEAC12243EA51514FEA1C501B
:101D500018BF00F5F0404FEA300018BF41F00041D5
:101D60005FEA6C5C00F02980BCF1FF3F08BF40F0E7
:101D700080407047130C06BF12044FF0100C4FF058
:101D8000000C130E04BF12020CF1080C130F04BF59
:101D900012010CF1040C930F04BF92000CF1020C21
:101DA000D30F04BF52000CF1010C11464FF000029A
:101DB000A0F11F00A0EB0C00704711F0004F08BF0E
:101DC000704731F000413FF4D5AF0B0C06BF09045A
:101DD0004FF0100C4FF0000C0B0E04BF09020CF179
:101DE000080C0B0F04BF09010CF1040C8B0F04BF8E
:101DF00089000CF1020CCB0F04BF49000CF1010C5F
:101E0000CCF12003A0EB0C0022FA03F302FA0CF24F
:101E100041EA030100F10100704720F07F4C80EAA5
:101E2000030023F07F47ACEB070303F57C5300F07E
:101E3000004003F1FF032DE980494FEA154B09B437
:101E40004FEA144325EA0B4E24EA03480FF2042616
:101E500006EB132749083E785FEA320203FB066768
:101E6000C7F5000707FB06F64FEA54374FEAD64698
:101E700006F1020607FB066CCCF1005C4FEA1C473A
:101E80002CEA074C07FB06F40CFB06F504EB1546A1
:101E90004FEA961634BF00204FF000404FEAD1378A
:101EA00006FB07FC4FEA1C4C0CFB0BF7D21B03FB99
:101EB0000CF761EB07010CFB0EF7B0EB074072EB80
:101EC00017420CFB08F734BFA2EB0742B2EB074204
:101ED00061EB17414FEA0C444FEA910706FB07FC00
:101EE0004FEA1C4C0CFB0BF7B0EBC74072EB5732C0
:101EF00003FB0CF734BFA2EBC742B2EBC74261EB66
:101F000057310CFB0EF7B0EBC70072EB57720CFBAE
:101F100008F734BFA2EBC702B2EBC70261EB5771FF
:101F2000039F4FEA816141EA921104EBCC044FEA2E
:101F3000D1374FEA826206FB07FC42EA90124FEA71
:101F400080604FEA1C4C0CFB0BF7D21B03FB0CF719
:101F500061EB07010CFB0EF7B0EB074072EB174289
:101F60000CFB08F734BFA2EB0742B2EB074261EB70
:101F700017414FEA8C554FEA910704EB9C2406FB6E
:101F800007FC4FEA1C4C0CFB0BF7B0EBC74072EBA5
:101F9000573203FB0CF734BFA2EBC742B2EBC74288
:101FA00061EB57310CFB0EF7B0EBC70072EB5772C9
:101FB0000CFB08F734BFA2EBC702B2EBC70261EB20
:101FC000577115EB4C254FEA816141EA92114FEAB6
:101FD00082624FEAD13742EA901206FB07FC44F1D5
:101FE00000044FEA80604FEA1C4C0CFB0BF7D21B3D
:101FF00003FB0CF761EB07010CFB0EF7B0EB07409E
:1020000072EB17420CFB08F734BFA2EB0742B2EBAE
:10201000074261EB174115EB1C154FEA813141EA8C
:1020200092414FEA823242EA90424FEA80304FEAD0
:102030000C7644F1000448EA03434EEA0B484FF0A3
:10204000000EB2EB080C71EB030724BF6246394661
:102050004EEB0E0E4FF0000B0018524149414BEB76
:102060000B0BB2EB080C71EB03077BF1000B24BFE9
:10207000624639464EEB0E0E4FF0000B00185241EF
:1020800049414BEB0B0BB2EB080C71EB03077BF1F7
:10209000000B24BF624639464EEB0E0E51EA020792
:1020A00018BF46F0010616EB0E7655F1000254F10A
:1020B000000103D5BDE88901BDE80088BDE88901BC
:1020C000BDE80048B619524141EB0101A3F10103FB
:1020D000704780807F7E7D7C7B7A79787776767595
:1020E0007473727171706F6E6E6D6C6C6B6A6A690D
:1020F0006868676666656464636362616160605FA7
:102100005F5E5E5D5D5C5C5B5B5A5A59595858571F
:102110005756565555555454535352525251515087
:1021200050504F4F4F4E4E4D4D4D4C4C4C4B4B4BDA
:102130004A4A4A4949494848484747474746464620
:10214000454545444444444343434342424242415B
:102150004141002B9C4630D477002BD01CB54FEA70
:10216000370703B44FF010004FF01001BAF1000F21
:1021700006D0BCF1000FDCBF40F0080040F00801C1
:102180004FF000000FBCBDE810400BF1010BBBF19C
:10219000010F08BF5FEA170722BF12F1010211F118
:1021A00001014FF0004143F1000300F0004043EA19
:1021B00000007047F9D35708D0E746EA064613F106
:1021C000400F4FEA16461FDD13F1200FDFBF164305
:1021D0000A46002120335B42BED0C3F1200746EA05
:1021E000064602FA07F74FEA164646EA0706C3F123
:1021F000200722FA03F201FA07F721FA03F14FF060
:10220000000342EA0702A7E746EA020646EA064654
:102210004FEA164646EA0106BCBF46EA0646360CB9
:102220004FF000034FF000024FF0000194E72DE95A
:10223000804C9A46934670B491E8380007C831EA5A
:10224000400C48BF34EA430C03D5FFF7E6FDFFF727
:1022500080FFF0BCBDE8008C2DE9804C9A46934687
:1022600070B491E8380007C810F0804F08BF13F031
:10227000804F03D100F005F8FFF76BFFF0BCBDE81D
:10228000008C20F07F4780EA030023F07F4C07EBAF
:102290000C03A3F57C5300F00040A3F1FE0392F081
:1022A000000F00F0B38095F0000F00F077802DE96B
:1022B00001494FEA11404FEA144621EA004800FB69
:1022C00006FC24EA064708FB06F607FB08F800FBB5
:1022D00007F718EB06484CEB164C4FEA124B18EB7D
:1022E00007484FEA15464CEB174022EA0B4E0BFB12
:1022F00006FC25EA06470EFB06F607FB0EFE0BFB67
:1023000007F71EEB064E4CEB164C4FF000061EEB8B
:10231000074E4CEB174B18EB0B0840F1000018EB85
:102320000E0B58EB000840F100008F1A4FF000012F
:102330003CBFC943661B14BFB5EB040C00213CBF76
:10234000C943F61B4FEA17444EEA8E0E27EA0445AE
:102350004FEA1C4704FB07622CEA074C05FB07F712
:102360000CFB05F604FB0CFC16EB074642EB174290
:1023700016EB0C4642EB1C421BEB060658EB020226
:10238000414146EA9E0601D5BDE80189B619524190
:1023900041EB0101A3F10103BDE801894FEA1445B6
:1023A0004FEA114724EA054621EA074C05FB07F4EA
:1023B00006FB07F70CFB06F105FB0CFC11EB0741D4
:1023C00044EB17444FEA124711EB0C4144EB1C4419
:1023D00022EA074C05FB07F206FB07F70CFB06F6A3
:1023E00005FB0CFC16EB074642EB174216EB0C46BE
:1023F00042EB1C456A1854F1000148BF7047B619FA
:10240000524141EB0101A3F10103704795F0000F28
:1024100037D04FEA11424FEA144721EA024624EA34
:10242000074C02FB07F106FB07F70CFB06F402FB67
:102430000CFC14EB074441EB17414FEA154714EB32
:102440000C4441EB1C4125EA074C02FB07F506FB57
:1024500007F70CFB06F602FB0CFC16EB074645EBF8
:10246000174516EB0C4645EB1C42121951F10001C1
:1024700048BF7047B619524141EB0101A3F1010376
:1024800070474FEA14454FEA114724EA054621EA0E
:10249000074C05FB07F106FB07F70CFB06F24FF0B4
:1024A000000605FB0CFC12EB074241EB174112EB57
:1024B0000C4251EB1C4148BF7047921841EB01019F
:1024C000A3F10103704721B1826842F001028260EA
:1024D00003E0826822F001028260704721B18268C5
:1024E00042F48072826003E0826822F4807282602B
:1024F0007047000010B504461248844208D10121FB
:10250000401500F0A3FF0021601500F09FFF17E0C9
:102510000D48844208D10121001500F097FF0021E9
:10252000201500F093FF0BE00848844208D10121F8
:10253000C80300F08BFF00214FF4004000F086FF3D
:1025400010BD00000024014000280140003C014073
:10255000014600208A6802F004020AB1012000E06E
:1025600000207047014600208A6802F008020AB184
:10257000012000E00020704730B502460020002313
:1025800050680F4C20400D790C6844EA0524204324
:10259000506090680B4C2040D1E902542C434D7997
:1025A00044EA450420439060D06A20F470000C7C1B
:1025B000641EE4B2234340EA0350D06230BD000001
:1025C000FFFEF0FFFDF7F1FFF0B504460D460020D9
:1025D0000021092D11DDE068A5F10A0606EB46078A
:1025E000072606FA07F18843A5F10A0606EB460618
:1025F00003FA06F10843E0600CE0206905EB4507AB
:10260000072606FA07F1884305EB450603FA06F1AB
:1026100008432061072A0FDA606B561E06EB860717
:102620001F2606FA07F18843561E06EB860605FAB2
:1026300006F10843606322E00D2A0FDA206BD61FF3
:1026400006EB86071F2606FA07F18843D61F06EB1E
:10265000860605FA06F10843206310E0E06AA2F15D
:102660000D0606EB86071F2606FA07F18843A2F13E
:102670000D0606EB860605FA06F10843E062F0BD9A
:10268000816841F008018160704721B1826842F49D
:10269000A002826003E0826822F4A0028260704798
:1026A000816841F0040181607047000030B1074942
:1026B000096841F40001054A116005E00349096811
:1026C00021F40001014A1160704700000824014014
:1026D0000246302A05DB392A03DCA2F13000C2B2FF
:1026E0000EE0412A05DB462A03DCA2F13700C2B224
:1026F00006E0612A04DB662A02DCA2F15700C2B2BE
:10270000302905DB392903DCA1F13000C1B20EE02C
:10271000412905DB462903DCA1F13700C1B206E0FF
:10272000612A04DB662902DCA1F15700C1B201EB8A
:102730000210C0B2704710B5012000F097FE0020D3
:1027400000F094FE10BD000008B501460020009086
:10275000034800900098084400900098008808BD45
:10276000006C004008B500220092044A0092009AD2
:1027700002440092009A116008BD0000006C004005
:1027800010B502460B460020002100BF02E0545C59
:102790006040491C9942FAD310BD000070B5034651
:1027A0000C461946002024E00025134E46F8205020
:1027B00011F8015B46F8205011F8012B1202354642
:1027C00055F82050154446F8205011F8012B1204FA
:1027D000354655F82050154446F8205011F8012B85
:1027E0001206354655F82050154446F82050451C31
:1027F000E8B2A042D8DB70BDA0010020B1F5007F97
:102800003AD00FDC202928D006DC01291CD004296D
:102810001DD0082940D11DE0402921D0B1F5807F8D
:102820003AD126E0B1F5004F31D006DCB1F5806F2A
:1028300025D0B1F5006F2FD124E0B1F5803F12D043
:10284000B1F5003F28D111E0154A826025E0082249
:10285000C26022E01022C2601FE0082202611CE078
:102860001022026119E00822426016E01022426044
:1028700013E00422426010E0042242600DE00422D2
:1028800042600AE0002282610422426005E00022E8
:1028900082610422426000E000BF00BF7047000078
:1028A0000101010010B504460B48844209D1012101
:1028B000480600F0ABFD00214FF0007000F0A6FDCF
:1028C00008E00121880600F0A1FD00214FF08060A2
:1028D00000F09CFD10BD00000064004010B5002118
:1028E000837A012202FA03F13D4A126842F00102A2
:1028F0003B4B1A603A4A1C3212688A43384B1C33ED
:102900001A60027BCAB9364A0C3212688A43344BC9
:102910000C331A604288C38842EA0343304A40328B
:10292000847A42F834300288838842EA03432C4A8E
:102930004032847A02EBC4025360027B012A19D12F
:10294000274A0C3212680A43254B0C331A6042881E
:10295000038842EA0343224A4032847A42F8343000
:10296000C288838842EA03431D4A4032847A02EBDC
:10297000C4025360C27A3AB9194A121D12688A43D6
:10298000174B1B1D1A6006E0154A121D12680A43F8
:10299000134B1B1D1A60028932B9114A1432126896
:1029A0008A430F4B14331A600289012A06D10C4A5C
:1029B000143212680A430A4B14331A60427B012A0C
:1029C00006D1074A1C3212680A43054B1C331A60B1
:1029D000034A126822F00102014B1A6010BD000088
:1029E000006600401AB143690B43436102E043694A
:1029F0008B434361704730B50246002000231468C2
:102A000024F002041460146844F00104146000E02F
:102A10005B1C546804F001041CB94FF6FF74A34218
:102A2000F6D1546804F001040CB900206CE08C79F4
:102A3000012C04D1146844F08004146003E014688D
:102A400024F080041460CC79012C04D1146844F083
:102A50004004146003E0146824F0400414600C7A0D
:102A6000012C04D1146844F02004146003E01468BD
:102A700024F0200414604C7A012C04D1146844F032
:102A80001004146003E0146824F0100414608C7ABD
:102A9000012C04D1146844F00804146003E01468A5
:102AA00024F008041460CC7A012C04D1146844F09A
:102AB0000404146003E0146824F0040414608C78A7
:102AC000A407CD7844EA05640D7944EA05444D79BC
:102AD00044EA05540D886D1E2C43D461146824F01B
:102AE00001041460002300E05B1C546804F001043E
:102AF0001CB14FF6FF74A342F6D1546804F00104F0
:102B00000CB1002000E0012030BD10B500F5D873F5
:102B100003EB01131B6803F004031372137A53B918
:102B200000F5D87303EB01131B6840F2FF7404EA4D
:102B30005353136009E000F5D87303EB01131B68CE
:102B40006FF0604404EAD303536000F5D87303EBDD
:102B500001131B6803F00203537200F5D87303EBF3
:102B600001135B6803F00F03937200F5D87303EB56
:102B700001135B681B0AD37400F5D87303EB0113D0
:102B80009B68D37200F5D87303EB01139B681C0A92
:102B9000147300F5D87303EB01139B681C0C54737A
:102BA00000F5D87303EB01139B681B0E937300F5BC
:102BB000D87303EB0113DB68D37300F5D87303EB11
:102BC0000113DB681C0A147400F5D87303EB0113BE
:102BD000DB681C0C547400F5D87303EB0113DB683D
:102BE0001B0E937421B9C36843F02003C36003E054
:102BF000036943F02003036110BD10B502460020B5
:102C0000936803F08063B3F1806F00D110E09368A4
:102C100003F00063B3F1006F01D1012008E0936875
:102C200003F08053B3F1805F01D1022000E0042063
:102C3000042874D002F5C07303EB00131B6803F083
:102C4000010402F5C07303EB00131C600B7A7BB91F
:102C50004B7A0C8843EA445302F5C07404EB001429
:102C60002468234302F5C07404EB0014236010E0D1
:102C70000B7A4C6843EAC4034C7A234302F5C074D0
:102C800004EB00142468234302F5C07404EB001421
:102C900023608B7A03F00F038B7202F5C07303EB92
:102CA00000135B6823F00F0402F5C07303EB0013FD
:102CB0005C6002F5C07303EB00135B688C7A2343FE
:102CC00002F5C07404EB001463608B7B1C064B7B25
:102CD00044EA03440B7B44EA0323CC7A234302F502
:102CE000C07404EB0014A3608B7C1C064B7C44EA8C
:102CF00003440B7C44EA0323CC7B234302F5C074DA
:102D000004EB0014E36002F5C07303EB00131B68CF
:102D100043F0010402F5C07303EB00131C6010BD07
:102D200030B502460B46002018E0157868400021B7
:102D300000240EE081EA000505F001052DB181F0C7
:102D40001801491041F0800100E049104010651C55
:102D5000ECB2082CEEDB0846521C5B1E002BE4DCB8
:102D600030BD000010B500235A1E19460748006800
:102D700009F030FC00200649A1F8860100231A461C
:102D800019460248006809F013FD10BDB400002088
:102D90006E37002000220F488088C52148430D4926
:102DA000891D01EB4000A0F88621881F8088401C07
:102DB000891F888008468088142801DB00208880CD
:102DC0000448008820B103480088401E014908805B
:102DD00070470000A018002021B1026842F00102F3
:102DE000026004E002684FF6FE731A40026070470A
:102DF00001684FF6FE7211400160002101604160E0
:102E00008160C1604B49884208D14A490839496804
:102E100041F00F01474A083A51608AE045491431B0
:102E2000884208D143490839496841F0F001414AD4
:102E3000083A51607DE03F492831884208D13D4938
:102E40000839496841F470613A4A083A516070E0C3
:102E500038493C31884208D136490839496841F43B
:102E60007041344A083A516063E032495031884237
:102E700008D130490839496841F470212D4A083A8F
:102E8000516056E02B496431884208D129490839FC
:102E9000496841F47001274A083A516049E02549E0
:102EA0007831884208D123490839496841F0706176
:102EB000204A083A51603CE01F49884206D1011F70
:102EC000096841F00F01021F116032E01A49143104
:102ED000884208D11849091F096841F0F001164AD3
:102EE000121F116025E014492831884208D1124987
:102EF000091F096841F470610F4A121F116018E040
:102F00000D493C31884208D10B49091F096841F439
:102F10007041094A121F11600BE007495031884285
:102F200007D10549091F096841F47021024A121F9F
:102F300011607047080002400804024010B50022EA
:102F4000026847F6F0739A430C6A8B6823430C6956
:102F500023434C6923438C692343CC6923434C6A44
:102F600023438C6A23431A430260CB6843600B6897
:102F700083604B68C36010BD10B5012000F004F8F9
:102F8000012000F007F810BD0149086070470000FB
:102F90001404014001490860704700001404014016
:102FA000002006490860091D0860091D0860091D08
:102FB000086003480149143108607047000401406B
:102FC000FFFF0F00002123498279002A3AD00A46E8
:102FD000126803689A430B461A600A1D1268036858
:102FE0009A430B1D1A60027911440A6803681A4358
:102FF0000A60184A0832126803689A43154B08336E
:103000001A601A1D126803689A43124B0C331A6037
:103010004279102A0ED11A1F126803681A430D4B09
:1030200008331A601A1D126803681A43094B0C33DF
:103030001A600DE00749427911440A6803681A438F
:103040000A6005E0027911440A6803689A430A603D
:1030500070470000000401400549096821F0100193
:10306000034A11601146096801431160704700006E
:103070000020024001460020034A106800F038009A
:103080000843106070470000002002402DE9F04125
:10309000024600250026002000230024002791F886
:1030A00003C00CF00F0591F803C00CF0100CBCF13C
:1030B000000F03D091F802C04CEA050591F800C05A
:1030C000BCF1000F31D0146800202BE04FF0010C50
:1030D0000CFA00F3B1F800C00CEA03069E4220D1BE
:1030E00083004FF00F0C0CFA03F7BC4305FA03FC06
:1030F0004CEA040491F803C0BCF1280F06D14FF04C
:10310000010C0CFA00FCC2F814C00AE091F803C0EC
:10311000BCF1480F05D14FF0010C0CFA00FCC2F8CD
:1031200010C0401C0828D1D31460B1F800C0BCF115
:10313000FF0F34DD546800202EE000F1080C4FF042
:10314000010808FA0CF3B1F800C00CEA03069E422D
:1031500021D183004FF00F0C0CFA03F7BC4305FAA2
:1031600003FC4CEA040491F803C0BCF1280F05D11C
:1031700000F1080C08FA0CF8C2F8148091F803C0AA
:10318000BCF1480F07D100F1080C4FF0010808FA14
:103190000CF8C2F81080401C0828CED35460BDE85B
:1031A000F0810000F0B50A4600230024002100252C
:1031B00000F00046B6F1004F02D11D4EF16901E06A
:1031C0001B4E7168C0F3034583B200F44016B6F598
:1031D000401F08D121F07061154E766826F07066A8
:1031E000134F7E6012E000F48016B6F5801F06D102
:1031F000032606FA05F4A14341F0706106E0460D8E
:10320000360103FA06F6B14341F0706122B1460D72
:10321000360103FA06F6314300F00046B6F1004FDE
:1032200002D1034EF16101E0014E7160F0BD00007A
:10323000000001400246002093680B400BB10120C2
:1032400000E0002070474161704701617047000055
:103250004CF6CC4001490860704700000030004047
:103260004AF6AA200149086070470000003000407B
:103270000149486070470000003000400149886003
:1032800070470000003000400149086070470000AE
:103290000030004070B5002100230F22C47804B331
:1032A000154C246804F4E064C4F5E064210AC1F11B
:1032B0000403CA40447804FA03F18478144021439B
:1032C00009010E4C0678A155047804F01F0501246D
:1032D000AC4005786D11AD0005F1E025C5F8004161
:1032E00009E0047804F01F050124AC40044D067881
:1032F000761145F8264070BD0CED00E000E400E0DA
:1033000080E100E002490143024A11607047000079
:103310000000FA050CED00E001490862704700006A
:1033200000000E420349096841EA8001014A116028
:10333000704700000070004010B5024600200C4BA2
:10334000186820F00300104318600A4B1B6843F014
:103350000403084C2360012901D130BF00E020BFE5
:10336000044B1B6823F00403024C236010BD0000D3
:103370000070004010ED00E001460020034A526852
:103380000A400AB1012000E00020704700700040B0
:10339000014908617047000000000E42014600200C
:1033A000034A106820F0E0000843106070470000F6
:1033B0000070004001460020034A506820F440405D
:1033C00008435060704700000010024029B1064ACF
:1033D00052690243044B5A6104E0034A5269824332
:1033E000014B5A61704700000010024029B1064AA3
:1033F000D2690243044BDA6104E0034AD269824392
:10340000014BDA61704700000010024029B1064A02
:1034100012690243044B1A6104E0034A12698243B1
:10342000014B1A61704700000010024029B1064AA2
:1034300092690243044B9A6104E0034A9269824311
:10344000014B9A61704700000010024029B1064A02
:10345000D2680243044BDA6004E0034AD268824334
:10346000014BDA607047000000100240014908601B
:1034700070470000400442420348406A40F08070B8
:103480000149486270470000001002400F48006880
:1034900040F001000D490860084640680C490840AA
:1034A0000A494860084600680A4908400749086018
:1034B0000846006820F4802008600846406820F430
:1034C000FE0048604FF41F00886070470010024003
:1034D0000000FFF8FFFFF6FE30B5002100220024B7
:1034E00000232D4D6D6805F00C0121B1042905D094
:1034F000082923D105E0294D056022E0274D05600C
:103500001FE0254D6D6805F47012234D6D6805F4BC
:103510008034022505EB92421CB9214D55430560CC
:103520000BE01D4D6D6805F400351DB11C4D554374
:10353000056002E0194D5543056002E0174D056036
:1035400000BF00BF144D6D6805F0F0010909154D6D
:103550006B5C0568DD4045600F4D6D6805F4E0610A
:10356000090A104D6B5C4568DD4085600A4D6D6849
:1035700005F46051C90A0B4D6B5C4568DD40C560C0
:10358000054D6D6805F44041890B074D6B5CC568BE
:10359000B5FBF3F5056130BD0010024000127A0062
:1035A00000093D00280100203801002010B5014627
:1035B0000022002300204A11012A02D1094C23686D
:1035C00006E0022A02D1074C236A01E0054C636A37
:1035D00001F01F02012494401C400CB1012000E0C6
:1035E000002010BD001002400248406800F00C00AE
:1035F000704700000010024001460020034A506856
:1036000020F0F000084350607047000000100240B6
:103610001149096821F480310F4A11601146096887
:1036200021F480211160B0F5803F03D0B0F5802FE8
:103630000ED106E00849096841F48031064A11605C
:1036400007E00549096841F4A021034A116000E040
:1036500000BF00BF70470000001002400149086031
:10366000704700000000424200210B4A11700A4AD4
:10367000203A82F82010012802D0042808D103E063
:103680000121054A117004E00521034A117000E090
:1036900000BF00BF704700002010024001490860D1
:1036A000704700008004424201460020034A5068EF
:1036B00020F4E060084350607047000000100240B2
:1036C00001460020034A506820F4605040EAC100DF
:1036D00050607047001002400149086670470000C2
:1036E0000000424202460020044B586820F47C103F
:1036F00042EA01031843014B586070470010024032
:1037000001490860704700003C0442420249096ACE
:103710000143014A11627047001002400146002037
:10372000034A506820F003000843506070470000CF
:103730000010024010B5022000F03AF888B14FF4B2
:103740000030FFF727FC0120FFF716FE10B1012023
:10375000FFF7E8FD00F08CF8022000F003F800F01D
:1037600087F810BD024909888143014A11807047DA
:10377000042800400348008840F0100001490880F8
:103780007047000004280040034800884FF6EF719E
:103790000840014908807047042800400021034880
:1037A0000188001F008841EA004070471C28004043
:1037B00001460020064A12880A40D0B2044A121F6D
:1037C00012880A4012B108B1012000E000207047C1
:1037D0000428004010B50120FFF7EAFF40B10120A6
:1037E000FFF7C0FF0348006810B90248006880472F
:1037F00010BD00003C01002029B1064A1288024396
:10380000044B1A8004E0034A12888243014B1A8059
:10381000704700000028004000B50246FFF7AAFFED
:10382000100C03490880091D0A80FFF7ADFF00BD99
:103830002028004000B50246FFF79CFF100C03490A
:103840000880091D0A80FFF79FFF00BD182800406F
:1038500000B50246FFF78EFFC2F30340034908801C
:10386000091D0A80FFF790FF00BD000008280040F6
:1038700000BF0348008800F020000028F9D07047FE
:1038800004280040074800884FF6F77108400549B2
:10389000088000BF0348008800F008000028F9D025
:1038A000704700000428004010B5044600235A1E4B
:1038B00019461248006808F08DFE1148B0F88601DC
:1038C000002811DD0E48B0F8862101462046FDF79C
:1038D00044F800231A4619460848006808F068FFB3
:1038E0000748B0F8860110BD00231A461946034860
:1038F000006808F05DFF0020F5E70000B40000203C
:103900006E37002070B505465648008808B900207B
:1039100070BD54488088C52148435249891D01EB38
:10392000400090F88901002847DD8A1F9288C5234E
:103930005A430B4603EB4202B2F886119A1F928853
:10394000C5235A43474B9B1D03EB4200FFF7E8F9A1
:10395000064644488088C52148434249891D01EBF9
:10396000400090F88801B04203D0FFF713FA00201E
:10397000CEE700240AE03B488088C5214843394906
:10398000891D01EB4000005D2855641C3548808886
:10399000C52148433349891D01EB4000B0F8860139
:1039A000A042E8DC881F8088C52148432D49891D35
:1039B00001EB4000B0F88601AAE72A48408829496F
:1039C000898888420EDD2748408826498988401A20
:1039D00024490988884205D00020224948808880EF
:1039E000088095E71F4840881E49898888420FDC77
:1039F0001C48408814301B498988401A1949098895
:103A0000884205D0002017494880888008807FE7D9
:103A100000240AE013488088C52148431149891DC4
:103A200001EB4000005D2855641C0E488088C521CC
:103A300048430C49891D01EB4000B0F88601A042C3
:103A4000E8DC881F0288818807A004F0FDF905489A
:103A50008088C52148430349891D01EB4000B0F827
:103A6000860155E7A01800203E4170703A53656EFC
:103A700064517565756520526561643A25642C252D
:103A8000640D0A0010B500F001F810BD0CB500205F
:103A9000019000903348006840F48030314908605C
:103AA00000BF3048006800F4003000900198401CCE
:103AB0000190009818B90198B0F5A06FF1D129488C
:103AC000006800F4003010B10120009001E00020F7
:103AD00000900098012843D12348006840F010006E
:103AE000214908600846006820F003000860084685
:103AF000006840F0020008601A48406819494860B0
:103B00000846406848600846406840F48060486065
:103B10000846406820F47C1048600846406840F43D
:103B2000E81048600846006840F08070086000BFF8
:103B30000C48006800F000700028F9D0094840687F
:103B400020F00300074948600846406840F0020042
:103B5000486000BF0348406800F00C000828F9D115
:103B60000CBD0000001002400020024030B50346AA
:103B70000C46002107E0585C655CA84201D000209B
:103B800030BD481C81B29142F5DB0120F8E700000E
:103B900010B500BFBF2080F31188BFF34F8FBFF374
:103BA0006F8F00BF08F084FF18B14FF080500449B8
:103BB000086000BF002080F3118800BF10BD000026
:103BC00004ED00E010B51348006840F00100114911
:103BD000086008464068104908400E494860084699
:103BE00000680E4908400B4908600846006820F448
:103BF000802008600846406820F4FE0048604FF4CA
:103C00001F008860FFF73EFF4FF000600449086026
:103C100010BD0000001002400000FFF8FFFFF6FE9C
:103C200008ED00E010B501210D4800F030F8A8B112
:103C300001210B4800F01CF80A48006810B109483F
:103C4000006880470848006810B10748006880474E
:103C50000648006810B105480068804710BD0000A4
:103C60000004004054010020580100205C010020A5
:103C7000CA430282704721B1028842F001020280E9
:103C800004E002884FF6FE731A400280704730B598
:103C90000246002000230024158A05EA01039589C5
:103CA00005EA010413B10CB1012000E0002030BD91
:103CB0001AB183890B43838102E083898B4383811B
:103CC00070470000002202881D4B98420ED01D4B09
:103CD00098420BD0B0F1804F08D01B4B984205D0D2
:103CE0001A4B984202D01A4B984204D14FF68F7368
:103CF0001A404B881A43174B984207D0164B9842EC
:103D000004D04FF6FF431A40CB881A4302808B88B9
:103D100083850B8803850A4B98420BD0094B984248
:103D200008D00E4B984205D00D4B984202D00D4B57
:103D3000984201D10B7A03860123838270470000E9
:103D4000002C014000340140000400400008004005
:103D5000000C0040001000400014004000400140F2
:103D6000004401400048014010B540F22551084888
:103D700000F0B9F8012809D140F22551044800F0BB
:103D80003BF808F089FB03480068804710BD00003D
:103D9000004C00406801002010B540F22551084851
:103DA00000F0A1F8012809D140F22551044800F0A3
:103DB00023F808F0C5FA03480068804710BD0000EA
:103DC000003801406001002010B540F2255108483C
:103DD00000F089F8012809D140F22551044800F08B
:103DE0000BF808F003FB03480068804710BD000093
:103DF000004400406401002010B50022002340F67A
:103E00006A14A14200D100BF0A1201249440A3B257
:103E1000DC43048010BD21B1828942F400528281CA
:103E200004E082894DF6FF731A40828170470000DA
:103E300010B504462048844209D101218803FFF7C8
:103E400005FB00214FF48040FFF700FB32E01B48E8
:103E5000844209D101214804FFF7D8FA00214FF428
:103E60000030FFF7D3FA25E01548844209D101213B
:103E70008804FFF7CBFA00214FF48020FFF7C6FA41
:103E800018E01048844209D10121C804FFF7BEFAA6
:103E900000214FF40020FFF7B9FA0BE00A488442F2
:103EA00008D101210805FFF7B1FA00214FF4801075
:103EB000FFF7ACFA10BD000000380140004400409C
:103EC00000480040004C00400050004002460020E6
:103ED000B1F5007F00D100BF13880B400BB101206A
:103EE00000E00020704770B5024600240023002542
:103EF000002040F66A16B14200D100BFC1F342155E
:103F000001F01F03012606FA03F3012D02D1968961
:103F1000334006E0022D02D1168A334001E0968A32
:103F200033400C12012606FA04F41688344013B10B
:103F30000CB1012000E0002070BDF0B50346002464
:103F400000260025002040F66A17B94200D100BFC4
:103F50001846C1F3421401F01F06012707FA06F5BF
:103F6000012C01D10C3004E0022C01D1103000E012
:103F700014301AB107682F43076002E00768AF43A7
:103F80000760F0BD2DE9F04786B005460E460024D7
:103F9000A24600BFA1460027B08900B100BF2F464E
:103FA0002C8A4CF6FF700440F08804432C82AC89C4
:103FB0004EF6F3100440B0883189084371890843F4
:103FC0000443AC81AC8A4FF6FF400440B0890443FF
:103FD000AC8201A8FFF780FA1F48874202D1DDF8C2
:103FE00010A001E0DDF80CA0A88900F4004040B169
:103FF0000AEBCA0000EB0A1031684900B0FBF1F887
:1040000007E00AEBCA0000EB0A1031688900B0FB38
:10401000F1F86420B8FBF0F004012009642101FBF1
:104020001089A88900F4004040B1322000EBC9009B
:10403000B0FBF1F000F00700044308E0322000EB91
:1040400009106421B0FBF1F000F00F0004432C8153
:1040500006B0BDE8F08700000038014001468888BE
:10406000C0F308007047C1F3080282807047000067
:1040700010B502210848FEF7C1FB084A0021064896
:10408000FEF743FD0648006828B1044948680B3133
:10409000034A1268904710BD00640040C47B0020B2
:1040A0004001002070B505460C46B4F5C37F00DD25
:1040B00070BD224629460448FCF74FFC0248A0F890
:1040C000864100BFF4E700006E3700202DE9F84379
:1040D00007460D460026B5F5C37F02DD0020BDE88A
:1040E000F8837C4840887B498988884202D1794896
:1040F000008898BB00240AE03A5D76484088C521D4
:1041000048437449891D01EB40000255641CAC42D0
:10411000F2DB70484088C52148436E49891D01EB98
:104120004000A0F886510022881F4088C5214843DE
:104130006849891D01EB400080F88921881F0088AB
:10414000401C891F088008464088401C488008465B
:104150004088142801DB00204880B1E0FFE74FF0E1
:104160000008002477E05B488088C521484359490E
:10417000891D01EB4009462089F803000122881FB0
:104180008188C52041435348801D00EB410080F8E1
:10419000892150488088C52148434E49891D01EB3B
:1041A000400090F88661311F4A4A9288C5235A43DD
:1041B000484B9B1D03EB4202D01CFEF7E1FA01467F
:1041C00044488088C5225043424A921D02EB400277
:1041D000B01E11543F498988C52251433D4A921D62
:1041E00002EB41003146FEF79BFD014639488088CD
:1041F000C5225043374A921D02EB400080F88811D7
:10420000921F9288C5235A43324B9B1D03EB4201F8
:10421000314A02EB08004FF4C572FCF79EFB08F52B
:10422000C5701FFA80F82B480088401E2949088075
:1042300008468088401C888008468088142801DB56
:10424000002088802348009503888288418823A025
:1042500003F0FAFD641C0A2C85DB00240AE03A5DB9
:104260001C484088C52148431A49891D01EB40007C
:104270000255641CAC42F2DB16484088C521484315
:104280001449891D01EB4000A0F886510022881FC7
:104290004088C52148430F49891D01EB400080F843
:1042A0008921881F0088401C891F08800846408893
:1042B000401C488008464088142801DB00204880C4
:1042C000044800950388828841880EA003F0BCFD55
:1042D000012004E7A0180020F83800203E4170704B
:1042E0003A53656E64517565756520426C696E64FC
:1042F00020526561643A25642C25642C25642C25A4
:10430000640D0A003E4170703A53656E64517565E4
:1043100075652057726974653A25642C25642C25CF
:10432000642C25640D0A0000490050EAC12018BF22
:1043300004204A0D18BF40F0010040F2FF72B2EBBA
:10434000515F08BF40F00200012808BF05207047F8
:1043500030380A2801D20120704700207047000041
:104360002DE9FF41EC48008800287DD1EB4800682A
:10437000EB49884204D14221E8480C30FCF78EFB1F
:10438000E648C068E74988420DD1E448B0F8130018
:10439000E549A1F80300E148807CC8714221DF486B
:1043A0000C30FCF77BFBDD488069E049884204D192
:1043B0004221DA481830FCF771FBD848406ADC49E2
:1043C000884204D14221D5482430FCF767FBD3480A
:1043D000006BD84988420DD1D048406BD249C1F812
:1043E0001700CE48806BC1F81B004221CB4830300B
:1043F000FCF754FBC948C06BCF4988420DD1C74870
:10440000006CC949C1F81F00C448406CC1F82300C2
:104410004221C2483C30FCF741FBC048806CC74990
:1044200088420AD1BD48B0F84D00BF49A1F8150037
:104430004221BA484830FCF731FBB848406DC049CA
:1044400088420AD1B54890F85800B74981F827004A
:104450004221B2485430FCF721FBB048006EB94904
:1044600088420CD1AD4800E052E1B0F86500AE4999
:10447000A1F805004221A9486030FCF70FFBA748CE
:10448000C06EB14988420FD1A44890F87100A64986
:1044900081F82900A14890F8730081F82A00422190
:1044A0009E486C30FCF7FAFA9C48806FA749884216
:1044B0001AD19A4890F87F009B4981F828009749C3
:1044C00091F87E0008F086FF0646A14AA14B08F04D
:1044D00095FF044608F03AFF934981F82E004221E7
:1044E0008E487830FCF7DAFA8C48D0F884009A4984
:1044F000884204D1422189488430FCF7CFFA8748AA
:10450000D0F890009549884212D1844890F89400E0
:1045100085498870814890F8950008727F48B0F806
:104520009600A1F8090042217C489030FCF7B6FAC9
:104530007A48D0F89C008A49884204D142217748C1
:104540009C30FCF7ABFA7548D0F8A8008549884242
:1045500011D1724890F8AC007349C8726F48B0F836
:10456000AF00C8816D4890F8B100087442216B48D3
:10457000A830FCF793FA6948D0F8B4007A49884229
:1045800013D16649B1F8BE0008F024FF06460022A8
:10459000764B08F033FF044608F0D8FE62490880E5
:1045A00042215E48B430FCF779FA5C48D0F8C0008C
:1045B0006F49884204D142215848C030FCF76EFA56
:1045C0005648D0F8CC006B4988420AD15348D0F8FD
:1045D000D0005549C1F8110042215048CC30FCF7B9
:1045E0005DFA4E48D0F8D8006349884204D1422190
:1045F0004A48D830FCF752FA4848D0F8E4005F49FE
:10460000884208D14548E83006F0DCFA42214348A8
:10461000E430FCF743FA4148D0F8F00058498842AA
:104620000FD13E48D0F8F4003F49C1F81F003B4885
:10463000D0F8F800C1F8230042213848F030FCF7E8
:104640002DFA3648D0F8FC004E49884209D10020A6
:104650004D4908704D49087042213048FC30FCF744
:104660001DFA2E48D0F808014949884203D1422159
:104670004848FCF713FA2948D0F814014449491C6A
:10468000884204D1422143480C30FCF707FA234802
:10469000D0F820013E49491E884204D142213D48BC
:1046A0001830FCF7FBF91D48D0F82C013849891C5B
:1046B000884204D1422137482430FCF7EFF91748EB
:1046C000D0F8380132491039884214D102200090C4
:1046D0003048303081684068CDE9010100231A4636
:1046E00069462D48006808F063F880464221294851
:1046F0003030FCF7D3F90948D0F844012449891E29
:10470000884204D1422123483C30FCF7C7F900E03D
:1047100000BF00BFBDE8FF819C00002038170020CB
:104720000000FF180004F00CF41600200003F00C49
:104730000F00F01800E0FE1800F2FE1800F1FE185D
:104740000008FF1800DFFE1800F6FE1800EFFE1844
:104750009A9999999999D93F00E4FE1800EEFE18AC
:104760000056FE1800F5FE1800F7FE180000E03FA6
:104770000007FD1800E5FE1800FFFE180001FD18F7
:1047800000E9FE182100EA18A4000020A50000207E
:10479000BAFFFF1F40180020A00000202DE9F043C1
:1047A0008BB081460D464E4630783A2803D0002023
:1047B0000BB0BDE8F083761C12219448FCF74CF94D
:1047C000002404E0315D91480155601CC4B2102CF6
:1047D000F8DB264430782C2801D00020E8E7E8B246
:1047E00001AB324602210090012003F015FD044682
:1047F000002C07DD002001A90855621C83481430F5
:10480000FCF7ABF8E8B201AB32460321009002207E
:1048100003F002FD0446002C0CDD002001A9085520
:1048200001A802F01BFB074608F090FD7749491EDE
:10483000A1F84800E8B201AB324604210090032001
:1048400003F0EAFC0446002C0BDD002001A908550A
:1048500001A802F003FB074608F078FD6B49491EEA
:104860000865E8B201AB324605210090042003F050
:10487000D3FC0446002C0CDD002001A9085501A83A
:1048800002F0ECFA074608F061FD6049491EA1F804
:104890005C00E8B201AB324606210090052003F02F
:1048A000BBFC0446002C0BDD002001A9085501A823
:1048B00002F0D4FA074608F049FD5449491E4865FC
:1048C000E8B201AB324607210090062003F0A4FCB9
:1048D0000446002C0CDD002001A9085501A802F0B7
:1048E000BDFA074608F032FD4849491E81F8B90073
:1048F000E8B201AB324608210090072003F08CFC9F
:104900000446002C1DDD002001A9085501A802F075
:10491000A5FA074608F01AFD3C49491EA1F86200B5
:104920000846B0F86200402803D10A2081F86000F0
:1049300007E040203549491EA1F862000A2081F8AD
:104940006000E8B201AB324609210090082003F074
:1049500063FC0446002C09DD224601A92B48633084
:10496000FCF740F80021294863300155E8B201AB5B
:1049700032460A210090092003F04EFC0446002C28
:1049800004DD9DF80400302800D000BF002417E0AB
:1049900000250E2000EB440001A9085C303885B2E8
:1049A0004FF6FF7000EA05150F2000EB4400085C8D
:1049B0003038284485B21548BC300555601CC4B257
:1049C000032CE5DB002418E000250A2000EB44015D
:1049D0000E48405C303885B24FF6FF7000EA05158E
:1049E0000B2000EB44010948405C3038284485B274
:1049F0000648B9300555601CC4B2032CE4DB142111
:104A000002489F3006F048F80120D1E62915002021
:104A10002DE9F04F93B005460C46192C02DBB4F596
:104A2000806F02DD13B0BDE8F08F2E46354630783A
:104A3000F12806D07078F22803D0B078FF2800D093
:104A4000F0E7281910F8010C0D2800D0EAE7611FE3
:104A5000E81CFDF795FE8046281910F8021C414518
:104A600000D0DFE7F078482800D0DBE7687E8DF8DB
:104A70003800A87E8DF83900BDF83890F0784828C5
:104A80000ED004DC022809D0472805D107E0892888
:104A900002D0FF28F9D100E01AE119E118E117E18D
:104AA0004846B9F5007F17D008DC01287ED00328DE
:104AB0007DD005287CD009287BD106E1A0F2012019
:104AC00020B3022843D0A0F57A40FF38002878D0E0
:104AD000B0F5807FF0D173E095F81D80B8F1000F3C
:104AE00013D100200F901090B08A1190CDF848900B
:104AF00000231A460FA97848006807F059FE0746B8
:104B0000012F02D075A003F09FF9E0E095F81D8019
:104B1000B8F1050F1ADC00200F90B8F1020F01DD8B
:104B2000022001E008F101001090B08A1190CDF848
:104B3000489000231A460FA96748006807F038FE1E
:104B40000746012F02D065A003F07EF9BFE095F87B
:104B50001D80B8F1000F02D0B8F1020F14D101206E
:104B60000F901090B08A1190CDF8489000231A460B
:104B70000FA95948006807F01BFE0746012F1ED0F9
:104B800056A003F061F91AE001200F900020109068
:104B9000B08A1190CDF8489000231A460FA94E48CC
:104BA000006807F005FE0746012F04E08AE08AE06E
:104BB0008AE08BE005E002D048A003F045F986E0EA
:104BC00000BF05F11D0BA4F1190084B2201F84B2AF
:104BD000E2B25946012003F009FB8246BAF1000F08
:104BE00009DDAAF1010259464648FBF7B6FE4549E0
:104BF00045A003F029F9142101A8FBF74FFFE0B20B
:104C000001AB5A4602210090012003F005FB002869
:104C10000CDD01A802F094F93A496C39A1F89E0024
:104C20000846B0F89E103EA003F00EF9142101A82A
:104C3000FBF734FFE0B201AB5A460321009002209B
:104C400003F0EAFA00280ADD142201A92D485C309D
:104C5000FBF7C8FE2B495C3137A003F0F5F81421AF
:104C600001A8FBF71BFFE0B201AB5A4604210090FC
:104C7000032003F0D1FA00280ADD142201A92148FB
:104C80004830FBF7AFFE1F49483131A003F0DCF894
:104C9000142101A8FBF702FFE0B201AB5A4605213F
:104CA0000090042003F0B8FA00280ADD142201A9BC
:104CB00014485C30FBF796FE12495C312AA003F0E1
:104CC000C3F804E003E002E001E000E000BF00BF41
:104CD00000BF00BFA6E60000A0000020436F756C77
:104CE00064206E6F742073656E6420746F20746826
:104CF000652071756575652E2E2E2E2E2E2E2E2E6C
:104D00000D0A00008C0A002046545020536572762C
:104D1000657220416464723A25730D0A0000000038
:104D20004654502053657276657220506F72743A03
:104D300025640D0A0000000046545020467470554A
:104D40007365724E616D653A25730D0A00000000AF
:104D50004654502046747055736572506173736485
:104D60003A25730D0A00000046696C65204E616D9E
:104D7000653A25730D0A00002DE9F04104460D4601
:104D800000272A460AA1204604F0DBF80646002E3A
:104D90000CDBA719084A09A13846FBF779FC06483D
:104DA0006438406E012801D1BDE8F0810020FBE7A6
:104DB0002B43474154543A00840A00202B43474177
:104DC00054543A202564000070B505460C4622462E
:104DD00006A1284604F0B5F80646002E04DB0120A3
:104DE000064981F83A0070BD0020FCE72B4350498A
:104DF0004E3A20524541445900000000200A00204C
:104E00002DE9FE4304460D469046994614B1042C04
:104E100000DC15B90020BDE8FE8309F0FF072B4632
:104E200022462BA13148CDF80080FBF7CBFA029047
:104E30002E48029903F0CAF800BF002364221946E5
:104E40002B48006807F0C6FB0646002E3ADD4FF4FB
:104E500080622849042005F09BFE0646B1B2254831
:104E600000F0B4F9002801DD0020D4E7324622A189
:104E7000204804F066F80290002814DB1D49029ACD
:104E8000881802AB01AA1FA1FBF702FC0198A042FF
:104E900009D10298012806D102201E49486681F8EE
:104EA00069000120B7E732461BA1124804F049F817
:104EB0000290002806DB01201649486681F8690047
:104EC0000220A8E7781EC7B2002FB6DC0020A2E7B8
:104ED00041542B4D49504F50454E3D25642C2C22BA
:104EE0002573222C25642C300D0A0000280F002089
:104EF0004C000020200600202B4D49504F50454EBD
:104F00003A0000002B4D49504F50454E3A20256441
:104F10002C256400200A00204552524F5200000008
:104F20002DE9F04104460D4600272A460FA12046F0
:104F300004F007F80646002E16DBA7190D4A0EA14D
:104F40003846FBF7A5FB0B485C38C06D012804D040
:104F500008485C38C06D052806D1012005495C3938
:104F600081F86900BDE8F0810020FBE72B43524542
:104F7000473A00007C0A00202B435245473A20253F
:104F80002A642C256400000038B504460D462A46E4
:104F90000CA1204603F0D5FF0090009800280FDBFD
:104FA000009960186B46094A09A1FBF771FB074895
:104FB0003C38C06B401C05493C39C863012038BDF2
:104FC0000020FCE72B4353513A0000005C0A00200C
:104FD0002B4353513A2025642C2564002DE9F041E0
:104FE00004460D4600272A4608A1204603F0A9FFE3
:104FF0000646002E08DBA719064A07A13846FBF72C
:1050000047FB0120BDE8F0810020FBE72B4343492B
:10501000443A0000600A00202B434349443A2025CB
:10502000730D0A002DE9FE430646894617464FF0E8
:10503000000800BFB8F1000F06D0B8F1010F17D07B
:10504000B8F1020F13D148E00320444981F8690008
:105050003B46324642A14748FBF7B4F90290454827
:10506000029902F0B3FF08F1010000F0FF0872E0BE
:105070000023642219464048006807F0ABFA044652
:10508000002C28DD4FF480623C49042005F080FDAF
:105090000446A1B2394800F099F80546002D06DD16
:1050A00001202E4981F869000020BDE8FE832246D8
:1050B00033A1324803F045FF029000280BDB0520A6
:1050C00006F0C0FF3946484602F080FF08F10100B3
:1050D00000F0FF083FE00020E7E700234FF4FA620A
:1050E00019462548006807F075FA0446002C30DDA3
:1050F0004FF480622149042005F04AFD0446A1B224
:105100001E4800F063F8A1B21C4800F05FF80546A5
:10511000002D05DD0120114981F869000020C4E758
:10512000224618A1154803F00CFF0290002810DB5E
:10513000104812490090029A881802AB01AA14A1E3
:10514000FBF7A6FA0198B04203D1029808B90120F2
:10515000ABE70020A9E700BF6CE70000200A0020B1
:1051600041542B4D495053454E443D25642C2564F4
:105170000D000000280F00204C0000202006002019
:105180003E0000002B4D495053454E443A0000006C
:105190002B4D495053454E443A2025642C25642C10
:1051A00025730D0A0000000070B505460C46224626
:1051B00005A1284603F0C5FE0646002E01DB0120AE
:1051C00070BD0020FCE700004F4B00007CB5054699
:1051D0000C4622460DA1284603F0B3FE019000289C
:1051E00011DB0D49019A881801AB6A460BA1FBF748
:1051F0004FFA0198012806D10C49486681F86900E8
:105200000098C0B27CBD0020FCE700002B4D495047
:10521000535441543A000000200600202B4D4950C1
:10522000535441543A2025642C256400200A002060
:105230002DE9F0470646894617461C46DDF820A0B2
:1052400016B90020BDE8F08700250A2094FBF0F095
:1052500084B200BF681CC5B24946304602F0B6FEB3
:105260000023224619461048006807F0B3F980462B
:10527000B8F1000F0EDD4FF480620C49042005F0F8
:1052800087FC80461FFA88F10848B847002801DDEE
:105290000120D7E7554500DB03E0642006F0D2FE8D
:1052A000D8E700BF0020CDE74C00002020060020FA
:1052B0003EB504460D462A4611A1204603F041FEA4
:1052C000029000281ADB0299601802AA0FA1FBF7CE
:1052D000DFF90298012811D1104981F8600001F529
:1052E0008071081FCDE90001029960180B4BF8335B
:1052F0001A1F0BA1FBF7CCF901203EBD0020FCE7F3
:105300002B4D495043414C4C3A0000002B4D495025
:1053100043414C4C3A20256400000000200A002044
:105320002B4D495043414C4C3A20312C25642E25BD
:10533000642E25642E25640D0A0000002DE9F34F2C
:10534000B5B000260020F5490870F5490870F12035
:105350008DF8B800F2208DF8B900FF208DF8BA0062
:1053600045208DF8BB00102115A805F0E5FB18B10C
:1053700015A80FC82FAC0FC402208DF8CC00012057
:105380008DF8CD0000208DF8CE00ADF8CF001922A9
:105390002EA9E448FBF7E1FA1926E348007890BB10
:1053A0000DF1540A0120AAF800000620AAF8020014
:1053B00001208AF8040002208AF805001E208AF8DD
:1053C000060005F0F5FA8AF8070005F0F1FA8AF808
:1053D000080005F0CDFA8AF80900D2483044159942
:1053E000016016994160BDF85C10018106F10A0068
:1053F00086B2CA480078401CC8490870CA4800787C
:10540000401CC94908700DF154090420A9F8000096
:105410001820A9F8020005F00DF989F8040005F03C
:1054200009F989F80500002089F80600A9F80700A5
:10543000A9F80900A9F80B00A9F80D0005F06AFB0E
:10544000A9F80F0005F002F9A9F811000020A9F849
:105450001300A9F81500C9F81700012089F81B00EE
:10546000B04988191C2215A9FBF777FA06F11C0030
:1054700086B2AA480078401CA849087015AD02A859
:1054800005F06AFB4FF4807028801920688005F0D1
:10549000C7FA0022A54BCDE9000107F0AFFF074690
:1054A00007F054FF686005F0C1FA00229F4BCDE978
:1054B000000107F0A3FF074607F048FFA86005F0CA
:1054C000BBFAA88105F0A6FAE88105F089FA00B2D6
:1054D00028829DF80800A8749DF80900E8749DF8DA
:1054E0000A0028759DF80B0068759DF80C00A875DA
:1054F0009DF80D00E87505F013FB287605F0ACF873
:10550000074605F0BDFA3844687605F06FFA6883FF
:1055100005F0A6FA412804D1287F40F00200287740
:1055200003E0287F00F0FD00287705F089F80028C7
:1055300004DD287F40F00100287703E0287F00F099
:10554000FE002877774988191D2215A9FBF705FA6F
:1055500006F11D0086B271480078401C6F49087042
:1055600015AC04A805F08AF805F096F80A287DD154
:105570000C20223424F8220C4E2024F8200CBDF8F4
:10558000100024F81E0C9DF8120004F81C0CBDF845
:10559000130024F81B0CBDF8150024F8190C9DF815
:1055A000170004F8170C9DF8180004F8160CBDF845
:1055B000190024F8150C9DF81B0004F8130CBDF815
:1055C0001C0024F8120CBDF81E0024F8100C9DF8E5
:1055D000200004F80E0CDDF8210044F80D0CBDF895
:1055E000250024F8090CDDF8270044F8070CDDF845
:1055F0002B0044F8030CDDF82F00C4F80100DDF89F
:105600003300C4F805009DF8370060729DF838003B
:10561000A0729DF83900E0729DF83A002073BDF841
:105620003B00A4F80D009DF83D00E0739DF83E009E
:105630002074BDF83F00A4F811009DF84100E0740B
:105640009DF8420020759DF8430060759DF8440068
:10565000A0759DF84500E0759DF8460020769DF800
:10566000470060769DF84800A07600E026E09DF8AF
:105670004900E0769DF84A0020779DF84B0060775E
:10568000BDF84C00E083BDF84E002084BDF850000A
:1056900060840020A084E084A062E062223C214972
:1056A0008819522215A9FBF758F906F1520086B263
:1056B0001A480078401C1949087000E000BF00BF7C
:1056C000DFF860B0A6F11700ABF8170013480078B8
:1056D0008BF8160016480088401C1549088058466B
:1056E000304409880180B01C86B2F11E0BF1030022
:1056F000FDF746F859468855701C86B20D2088552E
:10570000701C86B232463598FBF727F90020034912
:105710000870304637B0BDE8F08F000075000020FB
:1057200074000020281300207800002080842E417F
:10573000760000202DE9F04F89B005468A46914653
:10574000BAF1C80F03DA002009B0BDE8F08FB9F153
:10575000000F02D15620FE4908700024FDA0016808
:105760002960406868600834002705E0F848401C5C
:10577000C05D2919C8557F1C102FF7DBE01984B2D2
:105780002C202855601C84B2B9F1000F04D12819CF
:10579000142105F081F905E028191422EC49A03103
:1057A000FBF7DBF804F1140084B22C222046611CC4
:1057B0008CB22A54E6481530FBF7B0F80646281993
:1057C0003246E3491531FBF7C8F8A01984B22C2200
:1057D0002046611C8CB22A54DD49B1F848001422DD
:1057E00004A903F071FB0646002706E004A8C25D89
:1057F0002046611C8CB22A547F1CB742F6D32C225F
:105800002046611C8CB22A54D1486430FBF786F8DC
:10581000064628193246CE496431FBF79EF8A01996
:1058200084B22C222046611C8CB22A5405F018F94F
:10583000412805D1382028553021601C295404E026
:10584000302028553021601C2954A01C84B205F05A
:10585000E7F80022C24BCDE9000107F0CFFDCDE90A
:10586000020107F073FD0646142204A9304603F036
:105870002BFB0646281930220921FBF7E5F82819E9
:10588000324604A9FBF769F804F1090084B205F077
:10589000CDF80022B34BCDE9000107F0AFFDCDE913
:1058A000020107F053FD0646142204A9304603F016
:1058B0000BFB0646281930220921FBF7C5F82819E9
:1058C000324604A9FBF749F804F1090084B205F057
:1058D000A1F8834605F0B0F8039028195B46A2A111
:1058E000039AFAF76FFD064604F1080084B20DF141
:1058F0001008404605F0BAF898F8050098F804102A
:1059000098F8032098F80230CDE90032CDE9021072
:1059100098F8013098F80020281996A1FAF752FD5E
:105920000646A01984B22C222046611C8CB22A544F
:1059300005F0F6F80646142204A9304603F0C4FA2E
:105940000646281930220921FBF77EF8281932462D
:1059500004A9FBF702F8A01C84B22C222046611C8B
:105960008CB22A5405F092F80646142204A9304657
:1059700003F0AAFA0646281930220921FBF764F839
:105980002819324604A9FAF7E8FFA01C84B22C2299
:105990002046611C8CB22A5405F0BCF8064614223D
:1059A00004A9304603F090FA06462819324604A9A5
:1059B000FAF7D3FFA01984B22C222046611C8CB2C6
:1059C0002A5404F043FE0646142204A9304603F08C
:1059D0007BFA06462819324604A9FAF7BEFFA01939
:1059E00084B22C222046611C8CB22A5404F022FE80
:1059F0003030C2B22046611C8CB22A542C22204680
:105A0000611C8CB22A5405F07FF83030C2B22146B6
:105A1000601C84B26A542C222046611C8CB22A5429
:105A200004F0C6FF06460A20B6FBF0F03030C2B2E2
:105A30002046611C8CB22A542E222046611C8CB256
:105A40002A540A20B6FBF0F100FB116030302146E9
:105A5000621C94B268542C222146601C84B26A54A1
:105A60003B491422086D04A903F02EFA06462819B2
:105A7000324604A9FAF771FFA01984B22C222146FC
:105A8000601C84B26A543249B1F85C00142204A943
:105A900003F01AFA06462819324604A9FAF75DFF00
:105AA000A01984B22C222046611C8CB22A542849A9
:105AB0001422486D04A903F007FA06462819324655
:105AC00004A9FAF74AFFA01984B22C222146601CCF
:105AD00084B26A541E4890F8B9000A2190FBF1F094
